:020000040800F2
:10000000186C0020A101000877590008BD510008B4
:1000100075590008B9130008D175000800000000E8
:1000200000000000000000000000000087590008E8
:10003000851400080000000085590008895900084F
:10004000BB010008BB010008BB010008BB010008A0
:10005000BB010008BB01000887140008BB010008B1
:10006000BB0100088D14000893140008BB010008B0
:100070001914000825140008BB01000831140008F9
:10008000BB010008BB010008BB010008BB01000860
:10009000BD130008C9130008BB010008991400082B
:1000A000BB010008BB010008BB010008BB01000840
:1000B000BB0100089D590008A9590008BB010008B0
:1000C000BB010008BB010008BB010008BB01000820
:1000D000BB010008E15B0008BB010008ED5B000804
:1000E000BB010008BB010008BB010008BB01000800
:1000F000BB010008BB010008BB010008BB010008F0
:10010000BB010008BB010008B5590008BB0100088D
:10011000BB010008BB010008C1590008BB01000871
:10012000BB0100083D1400084914000855140008DC
:10013000BB010008BB010008BB010008BB010008AF
:10014000D5130008E1130008BB0100087959000825
:10015000611400086D14000879140008F95B0008A8
:10016000BB010008BB010008BB010008BB0100087F
:10017000BB010008BB010008BB0100080000000033
:10018000BB010008BB010008DFF810D001F086F8C1
:1001900000F084FD00480047710F0108186C002032
:1001A0000648804706480047FEE7FEE7FEE7FEE711
:1001B000FEE7FEE7FEE7FEE7FEE7FEE78D590008F3
:1001C00089010008B5EEC00AF1EE10FA07D2DFEDA2
:1001D0001E0AB4EEE00AF1EE10FAA8BF7047DFED98
:1001E0001B0AB5EEC00A60EE200ABDEEE01A11EE61
:1001F000100AF1EE10FA38BF401E00EE100A154941
:10020000F7EE001AB8EEC00A30EEC00ADFED100AB1
:1002100060EE200ABCEEE00A10EE100AC0F30800FF
:1002200000EE100A01EB8000B8EE400A90ED011AD2
:1002300070EEC00A90ED000A71EEE01A21EE800A1D
:1002400000EE810A70470000CD024CB483F9223ED3
:10025000000000443814010870B405880E88446812
:10026000D1F804C05368B54208D140884988884213
:1002700001BF11888D425188884203D070BC6FF055
:100280000200704705FB00F1880827D094ED001AA2
:10029000DCED000A94ED010ADCED011A31EE201AC2
:1002A000D4ED020A70EE211A9CED020A83ED001AC9
:1002B000C3ED011A94ED031ADCED031A30EE800A47
:1002C000401E71EE210A83ED020A04F11004C3ED11
:1002D000030A03F110030CF1100CD7D111F0030045
:1002E00030D0B0F1004F30D200282BDD211F1B1F72
:1002F000ACF1040210F0010F0AD091ED010AD2ED29
:10030000010A091D121D30EE200A83ED010A1B1D92
:10031000400817D091ED010AD2ED010A401E30EEDF
:10032000200A83ED010A91ED020AD2ED020A01F1E1
:10033000080102F1080230EE200A83ED020A03F1FF
:100340000803E7D170BC00207047B4EC010A401EDE
:10035000FCEC010A30EE200AA3EC010AF5D1F1E72A
:1003600001804280436070472DE9F34F84B00498C8
:1003700040680090486801900498B0F800E0458813
:10038000DFEDFE0A00200290B0EE600AAE4506D115
:1003900008884988884204BF7146864504D06FF0BA
:1003A000020006B0BDE8F08F01985FEA010C18BFAB
:1003B000B7EE001A3DD000BFBEEB0C0117D0B1F173
:1003C000004F80F01F82002911DD021F11F0010F84
:1003D0001CBFC2ED010A121D4B1006D0C2ED010A6E
:1003E000C2ED020A08325B1EF8D100EB8100BCF1BD
:1003F0000102A0EC011A19D0B2F1004F80F008827E
:10040000002A13DD031F12F0010F1CBFC3ED010A08
:100410001B1D511008D000BFC3ED010AC3ED020A35
:10042000491E03F10803F7D100EB8200BCF1010C77
:10043000C2D14FF000080395002D14BFB0EE602A22
:10044000002000F0BF8100BF009908FB05F001EB20
:10045000800B0199DBED002A01EB80000346F0EEF2
:10046000421AC64552D9AEEB0802ABEB850112F039
:10047000010F17D001EB850191ED000AB5EEC00A1E
:10048000F1EE10FA07DDB4EEE10AF1EE10FA09DD43
:10049000F0EE401A06E0B1EE400AF4EEC01AF1EEBA
:1004A00010FAF5D3521031D001EB850C9CED000A07
:1004B000B5EEC00AF1EE10FA05DDB4EEE10AF1EE98
:1004C00010FA09DD06E0B1EE400AF4EEC01AF1EED2
:1004D00010FA01D2F0EE401A01EBC50191ED000ACD
:1004E000B5EEC00AF1EE10FA05DDB4EEE10AF1EE68
:1004F00010FA09DD06E0B1EE400AF4EEC01AF1EEA2
:1005000010FA01D2F0EE401A521ECDD1F5EEC01A0B
:10051000F1EE10FA00F07381F5EEC02A0126F1EE3B
:1005200010FA0099D4BFB1EE620AB0EE620AB4EEDE
:10053000610AF1EE10FA1CBFAEEB0802B2F1010C39
:1005400047D005FB08F201EB820292ED001A00BFD2
:10055000B0EE410A05FB06F4B5EEC00A00EB8404D8
:10056000F1EE10FACCBFF0EE400AF1EE400AF4EEE4
:10057000610AF1EE10FA28D1B5EB080C11D0BCF1EC
:10058000004F7DD2BCF1000F0BDD00BF92ED000AE1
:10059000D1ED000ABCF1010CE2EC010AA1EC010A68
:1005A000F4D129000ED0B1F1004F6AD2002909DD43
:1005B00094ED000AD0ED000A491EE4EC010AA0EC1B
:1005C000010AF5D1012002900BE0761CBCF1010C70
:1005D000BED10298012804D0F5EEC02AF1EE10FA3F
:1005E0007ED09BED000AB5EB08009A4659460646B8
:1005F00022D0B0F1004F74D200281DDD091F10F089
:10060000010F06D0F0EE400A80EEA01A81ED011A2B
:10061000091D401010D000BFD1ED010A401E80EE30
:10062000801A81ED011A91ED021AC1EE000AC1EDA6
:10063000020A01F10801EFD1280026D0B0F1004FE5
:100640007ED2002821DDAAF1040110F0010F06D0AE
:10065000D1ED010A80EE801A81ED011A091D4010CA
:1006600013D000BFD1ED010A401E80EE801A81ED4B
:10067000011AD1ED020A80EE801A81ED021A01E022
:10068000CBE0D6E001F10801ECD1DDE900124FF03A
:1006900000095FEA0E0773D0C14504BF01EB860174
:1006A00002EB850274D091ED000ADC465046331E01
:1006B00035D01C46B6F1004F7ED2002C2FDD0B1F2B
:1006C000ABF1040C16F0010F0FD0F0EE400ADCED98
:1006D000011AB0EE601A00EEE11A83ED011A01E092
:1006E0008DE0B1E01B1D0CF1040C741015D000BF9F
:1006F000D3ED010A9CED011A40EE410AC3ED010A57
:10070000D3ED020A9CED021A0CF1080C40EE410AEE
:10071000C3ED020A0833641EEAD101EB86012B0007
:1007200036D0B3F1004F72D2002B31DDA2F1040CB0
:10073000AAF1040013F0010F0CD0DCED010A00E077
:100740008BE090ED011A001D40EE410ACCED010A4C
:100750000CF1040C5C1019D0DCED010A90ED011ACB
:1007600040EE410ACCED010ADCED020A90ED021ADE
:10077000083040EE410ACCED020A03E00000000020
:100780000DE005E0641E0CF1080CE5D102EB8302DC
:1007900001EB88017F1E09F101097FF47DAF00980C
:1007A00008F10108001D00900398401E03907FF49B
:1007B0004BAE0299012900E058E004BF06B0BDE845
:1007C000F08F00BFB5EEC00AF1EE10FA7FF4E9AD8C
:1007D00004990EFB05F3002B4A684FF000010BD97A
:1007E00002EB810C9CED000AB5EEC00AF1EE10FAA6
:1007F00002D1491C8B42F3D88B427FF4D2AD6FF00B
:100800000400CEE5E0EC010A491EFBD1EFE538E03B
:10081000E0EC010A521EFBD108E692ED000AD1ED90
:10082000000ABCF1010CE2EC010AA1EC010AF4D1CE
:10083000B7E694ED000AD0ED000A491EE4EC010A87
:10084000A0EC010AF5D1BDE6D1ED000A401E80EE14
:10085000801AA1EC011AF7D1EEE6D3ED000A401E92
:1008600080EE801AA3EC011AF7D10EE7BCEC011A56
:10087000D1ED000A5B1E40EE410AE1EC010AF5D120
:100880004DE7B0EC011AD2ED000A5B1E40EE410AC2
:10089000E2EC010AF5D17BE72DE9F04F82B0466822
:1008A00053680193058847884B880020009008888A
:1008B000874201BFB2F800C06545528893421EBF0F
:1008C0006FF0020002B0BDE8F08F9FED412A4FEAC1
:1008D000970EC7F3400B00BFDDE9000202EB800A70
:1008E0004A6898464FF00009B0EE420AB4465FEA03
:1008F0000E0025D092ED001ADCED001A02EB830207
:10090000DCED010A01EE810A92ED001A02EB83028E
:10091000401ED2ED001A02EB830200EE810A9CED2C
:10092000021ADCED030A00040CF1100C000C01EEBD
:10093000210A92ED001A02EB830200EE810AD9D15E
:1009400017F0030026D0ACF10404A2EB830210F0F0
:10095000010F08D002EB8302D4ED010A92ED001AD8
:10096000241D00EE810A5FEA0B0013D002EB830C1A
:10097000D4ED010A9CED001A02EBC302401E00EE0A
:10098000810AD4ED020A92ED001A04F1080400EE87
:10099000810AEBD109F10100AAEC010A1FFA80F9E2
:1009A000486800EB8902A8F101001FFA80F8B8F14D
:1009B000000F99D1009806EB8706184480B200908A
:1009C000681E05042D0C87D102B00020BDE8F08F11
:1009D0000000000070B405880E884468D1F804C097
:1009E0005368B54208D140884988884201BF1188C0
:1009F0008D425188884203D070BC6FF0020070476E
:100A000005FB00F1880827D094ED001ADCED000A00
:100A100094ED010ADCED011A31EE601AD4ED020A00
:100A200070EE611A9CED020A83ED001AC3ED011A03
:100A300094ED031ADCED031A30EEC00A401E71EE8D
:100A4000610A83ED020A04F11004C3ED030A03F105
:100A500010030CF1100CD7D111F0030030D0B0F11D
:100A6000004F30D200282BDD211F1B1FACF10402E8
:100A700010F0010F0AD091ED010AD2ED010A091D13
:100A8000121D30EE600A83ED010A1B1D400817D0CD
:100A900091ED010AD2ED010A401E30EE600A83EDAD
:100AA000010A91ED020AD2ED020A01F1080102F1F8
:100AB000080230EE600A83ED020A03F10803E7D171
:100AC00070BC00207047B4EC010A401EFCEC010A27
:100AD00030EE600AA3EC010AF5D1F1E72DE9F04F01
:100AE00002884768B0F802804888D1F8049082B044
:100AF0004FF0000A1646824207BF098888456FF00A
:100B0000020002B018BFBDE8F08F4FEA980B02EB6D
:100B100042000190C8F34000CDF8000009EB8A01C3
:100B2000BBF1000F33D0019801EB820C01EB800484
:100B30003B46E64601EBC2054FEA0B0093ED000A87
:100B4000401E81ED000A93ED010A01EB02118CEDCC
:100B5000000A93ED020A0CEB021C85ED000A93EDEE
:100B6000030A05EB021584ED000A04EB021403F1FD
:100B70001003E3D10EEB820000EB820000EB820158
:100B8000ABF10100504307EB0B1701EB001118F01C
:100B9000030C21D03B1FA1EB82011CF0010F06D0FA
:100BA00093ED010A01EB82011B1D81ED000A009803
:100BB00080B100BF93ED010A01EB820401EBC20199
:100BC00084ED000A93ED020A401E81ED000A03F154
:100BD0000803EFD107EB8C070AF101001FFA80FA36
:100BE000701E0604360C99D102B00020BDE8F08FCB
:100BF0002DE9F05F0546002092469B468846064652
:100C0000814640241BE0284641464746224600F0E4
:100C100060FA53465A46C01A914110D311461846FD
:100C2000224600F047FA2D1A67EB01084F4622468C
:100C30000120002100F03EFA17EB00094E41201E72
:100C4000A4F10104DFDC484631462A464346BDE8AC
:100C5000F09F40EA01039B0703D009E008C9121F77
:100C600008C0042AFAD203E011F8013B00F8013B66
:100C7000521EF9D27047D2B201E000F8012B491E92
:100C8000FBD270470022F6E710B513460A46044629
:100C90001946FFF7F0FF204610BD000070B5054C67
:100CA000054D03E0206820448047241DAC42F9D163
:100CB00070BD0000101D0108341D01082DE9FE4F14
:100CC000804681EA0300C00F0C46009021F00041ED
:100CD00023F00045B8EB0200A94105D24046214669
:100CE00090461C460B46024623F00040104347D076
:100CF000270DC7F30A00C3F30A510290401A01906E
:100D000040286BDAC3F3130040F4801B009892462E
:100D100020B10023D2EB030A63EB0B0B0198594679
:100D2000C0F14002504600F0C5F906460D46504657
:100D30005946019A00F0DDF910EB080061410024EA
:100D400087EA115284EAE7731A4340D0009A62B3EB
:100D5000019A012A4FEA075215DC001B61EB0201E0
:100D60004FF0004202EA0752CDE90042001C41F573
:100D7000801132462B4600F014FA03B0BDE8F08F24
:100D800040462146F9E7001B61EB0201001C41F5DA
:100D9000801300185B412018A2F5001747EB0301F0
:100DA00040EAD570B6196D4111E06D084FEA36067C
:100DB00045EAC0754FEA0752001B61EB0201001CB7
:100DC00041F5801149084FEA30000019514132467F
:100DD0002B4603B0BDE8F04F00F0D4B900980122D3
:100DE00040000023D0EB020263EBE0730098214641
:100DF0004FEAE074B8EB000061EB0401E9E783F02F
:100E000000435BE781F0004158E72DE9FE4F81EA9E
:100E1000030404F0004421F0004100944FF0000B63
:100E200023F0004350EA01045ED052EA03045BD091
:100E3000C3F30A54C1F30A552C44A4F2F3340194C9
:100E4000A0FB0254C1F3130141F48011C3F3130357
:100E500043F4801301FB024400FB034E840A970A0B
:100E600044EA815447EA8357A4FB076802958D0A38
:100E700005FB07854FEA932C04FB0C542705029DC4
:100E80004FEA065847EA1637B5EB08056EEB070C34
:100E9000870E920E47EA811742EA8312A7FB0201EE
:100EA000B6EB0B0164EB00042B0D43EA0C335E1828
:100EB00044EB1C50DA465146E7FB0201C5F313042C
:100EC0004FEA0B3343EA14534FEA0432019C43EADE
:100ED0000603A4F10C040294009CCDE900B400F0D8
:100EE00060F903B0BDE8F08F00200146F9E72DE975
:100EF000F04D81EA030404F0004B21F00045144654
:100F00004FF0000A23F0004150EA050220D054EAD5
:100F100001021DD0C5F30A570246C5F31303C1F3FE
:100F20001300C1F30A5640F4801543F48013A7EB75
:100F30000608101BD64608F2FD3873EB050002D3F5
:100F400008F1010801E092185B41B8F1000F03DAE3
:100F500000200146BDE8F08D00204FF480110646C8
:100F600084460EE0171B73EB050705D3121B63EBDA
:100F7000050306434CEA010C49084FEA3000921879
:100F80005B4150EA0107EDD152EA030012D082EA38
:100F9000040083EA0501084305D0101BAB4106D2CB
:100FA0000122002306E000224FF0004302E06FF030
:100FB000010253101AEB06004CEB085110EB0A002B
:100FC00041EB0B01BDE8F04D00F0DCB830B4044655
:100FD00096230800214604D0B62330BC002200F03E
:100FE000A3B820460021F8E70EB5C10F80EAE070F3
:100FF0000844CA07002140F233438DE80E000A4638
:101000000B4600F0CEF803B000BD0EB540F2334100
:1010100002910021CDE900110A460B4600F0C1F80B
:1010200003B000BD00F0004230F000400AD0C10D16
:1010300001F56071C0F3160042EA0151C208400791
:1010400011437047002001467047000030B5041E70
:1010500071F1000404DB4FF00044404264EB0101F5
:10106000141E73F1000405DB1C464FF0004352428E
:1010700063EB04038B4208BF824230BD01F00043A2
:1010800030B421F0004150EA010206D00A0DA2F569
:101090006072C1F31301002A02DC30BC00207047EB
:1010A000440F44EAC104C100E01830BC00EBC25058
:1010B00000F031B8202A04DB203A00FA02F10020C7
:1010C00070479140C2F1200320FA03F31943904086
:1010D0007047202A04DB203A21FA02F000217047F1
:1010E00021FA02F3D040C2F1200291400843194690
:1010F0007047202A06DBCB17203A41FA02F043EA78
:10110000E07306E041FA02F3D040C2F120029140C0
:101110000843194670470029A8BF7047401C490082
:1011200008BF20F00100704710B4B0FA80FC00FA4C
:101130000CF050EA010404BF10BC704749B1CCF177
:10114000200421FA04F411FA0CF118BF0121214303
:101150000843A3EB0C01CB1D4FEA00614FEA1020BE
:1011600042BF002010BC704700EBC3501044002960
:10117000A4BF10BC7047401C490008BF20F001000C
:1011800010BC704710B5141E73F1000408DA401C3F
:1011900041F1000192185B411A4301D120F0010096
:1011A00010BD2DE9F04D92469B4611B1B1FA81F286
:1011B00002E0B0FA80F220329046FFF77BFF04464F
:1011C0000F4640EA0A0041EA0B0153465A460843DB
:1011D00013D0114653EA010019D0C8F1400250461D
:1011E000FFF777FF05460E46504659464246FFF741
:1011F00061FF084305D0012004E020463946BDE8E0
:10120000F08D0020054346EAE0762C4337430A98E8
:101210006305E40AA0EB08000022FD0A44EA4754F3
:101220000A3002D500200146E9E70105101969419D
:10123000DDE9084500196941BDE8F04DA2E770B548
:1012400021F0004303430CD0C1F30A550024D5EB31
:10125000040564EB0403D617AD1AB34102DB00208A
:10126000014670BD201841EB025170BD30B5041E1F
:1012700071F1000404DB4FF00044404264EB0101D3
:10128000141E73F1000405DB1C464FF0004352426C
:1012900063EB0403994208BF904230BD064C074DF2
:1012A00006E0E06840F0010394E807009847103436
:1012B000AC42F6D3FEF76CFFF01C0108101D0108CC
:1012C0002DE9F04D00231A461B1A8A4103DB00204A
:1012D0000146BDE8F08DC1F30A52C1F3130141F498
:1012E00080154FF0000BD10702D100186D41521E3E
:1012F0000027044640F2FF11384601EB620A3E46E1
:101300008046024600204FF48011FFF7E2FEC2192A
:101310007141BB1846EB0100B4EB030C75EB000CFC
:1013200004D3E41A65EB000517460E46241908F1AC
:1013300001006D4180463428E3DDF91946EB0600D3
:10134000091BA84103D24FF0FF32134601E00022EF
:1013500013461BEB070046EB0A51BDE8F04DFFF7C3
:1013600011BF70B58C1810F8015B15F0070301D19F
:1013700010F8013B2A1106D110F8012B03E010F8F8
:10138000016B01F8016B5B1EF9D12B0705D400231B
:10139000521E0DD401F8013BFAE710F8013BCB1ABD
:1013A000921C03E013F8015B01F8015B521EF9D5B2
:1013B000A142D8D3002070BDFEE70000014800F034
:1013C00005BA000044040020014800F0FFB9000005
:1013D00044040020014800F0F9B900006C0400202A
:1013E000014800F0F3B900006C04002010B50A4673
:1013F0000849D1F8BC12D1F81412002901D00120FB
:1014000010BD0146034804F009FEBDE81040014844
:1014100004F09ABE28320020014800F0F1BC000020
:10142000500A0020014800F0EBBC0000E804002056
:10143000014800F0E5BC000048050020014800F02C
:10144000DFBC0000B00A0020014800F0D9BC000059
:1014500000060020014800F0D3BC00006006002018
:10146000014800F0CDBC000090090020014800F0C8
:10147000C7BC0000100B0020014800F0C1BC0000F8
:10148000F00900207047012000F058BE082000F04D
:1014900055BE102000F052BE202000F04FBE72B6A4
:1014A000FEE790F82020012A07D0022A05D0416AE1
:1014B00041F48021416201207047006842690A437B
:1014C000426100207047F0B590F820500468A4688D
:1014D000012D07D0022D05D0416A41F480214162DF
:1014E0000120F0BD04F0806504F00066354301D1B1
:1014F000E50053D5C4F301640125A5401D608B6848
:101500004FF4C0759BB1CE6805EB041733434E68AA
:1015100043EAC6030668F3514FF4C273076803EB4E
:1015200004130E69FE50097D012909D00DE00E88D3
:10153000CB6805EB041743EA46530668F351EBE723
:101540000168CE5846F48076CE501179D379567919
:1015500041EA036193791B0443EA062319434FF4DC
:10156000C676036806EB041699511178D37841EAE0
:101570000361937852781B0443EA022211434FF42B
:10158000C473026803EB0413D150006805EB041127
:10159000425842F0010242500020F0BD416A41F43D
:1015A000001141620120F0BD10B590F82020012A01
:1015B00007D0022A05D0416A41F48021416201200E
:1015C00010BD3C4800F50070026842F00102026064
:1015D000026822F47C52026002684B6A42EA0322EB
:1015E00002600A7D02F01F0301229A40C3699343FF
:1015F000C361A0F50070CB69B3B9D0F80C32934346
:10160000C0F80C328C894B6864F31F434C6900EBC3
:10161000C404C4F840320C890B6864F31F434C695E
:1016200000EBC404C4F84432CB69012B16D1D0F8C6
:101630000C321343C0F80C320C884B6864F31F4320
:101640004C6900EBC404C4F840320C89CB6864F3E5
:101650001F434C6900EBC404C4F844328B697BB16E
:10166000D0F804321343C0F804320B6973B1D0F8D8
:1016700014321343C0F81432096A01290CD010E067
:10168000D0F804329343C0F80432EEE7D0F81432B5
:101690009343C0F81432EFE7D0F81C121143C0F89E
:1016A0001C12D0F8001221F00101C0F80012002035
:1016B00010BD000000640040704770B590F82040F5
:1016C000012C07D0022C05D0416A41F480214162EF
:1016D000012070BD21B104682469A4072AD003E069
:1016E0000468E468A4071FD04FF4D874056804EBBD
:1016F00001142D5905F0040595600DB305682D59A9
:10170000ED08556005682C5904F00204D4604FF4CC
:10171000DA74056804EB01142E5906F00F06082E42
:1017200013D30825156114E0416A41F400114162A8
:10173000012070BD416A41F400114162012070BD79
:1017400005682D596D0D1560DCE72D5905F00F0565
:10175000156105682D59C5F30725956105682C5954
:10176000240C54614FF4DC72046802EB0112A4589B
:101770001C700468A458240A5C700468A458240CE3
:101780009C700468A258120EDA704FF4DE7204687E
:1017900002EB0112A4581C710468A458240A5C715D
:1017A0000468A458240C9C710468A258120EDA71C3
:1017B00031B10068016941F020010161002070BD74
:1017C0000068C16841F02001C160F7E72DE9F05FD2
:1017D0000546002428684669D0F804908768D0F848
:1017E0000CA0D0F810B0D0F81880F10748D0F90755
:1017F00014D001218160B80703D5284600F0A0FA73
:101800000CE0780702D54FF4006407E0380702D5F2
:101810004FF4805402E0284600F091FAF80516D5FE
:1018200029684FF480708860B80503D5284600F019
:1018300089FA0CE0780502D544F4005407E0380535
:1018400002D544F4804402E0284600F07AFAF80316
:1018500016D529684FF480308860B80303D5284630
:1018600000F072FA0CE0780302D544F4004407E07B
:10187000380302D544F4803402E0284600F063FACD
:10188000300707D55FEACA6004D544F400742968BC
:101890001020C86070074FF0080707D55FEA0A708C
:1018A00004D52868C760284600F0C8F9B00706D5F7
:1018B0002868C068800702D0284600F0C1F9700689
:1018C00007D55FEACB6004D544F480642968102012
:1018D0000861B00607D55FEA0B7004D52868076178
:1018E000284600F0D5F9F00606D52868006980077B
:1018F00002D0284600F0CEF9B00308D55FEAC960EF
:1019000005D5296810204860284600F0EBF9F0035F
:1019100007D55FEA097004D528684760284600F0BB
:1019200014FA300446D55FEA497040D5F00504D575
:101930005FEAC87001D044F00104B00504D55FEA45
:10194000887001D544F00204700504D55FEA487040
:1019500001D544F00404300529D518F0700F26D0C5
:1019600008F07000402815D006DC102809D0202887
:101970000AD0302816D10AE050280ED0602811D1A4
:101980000EE044F008040DE044F010040AE044F0D6
:10199000200407E044F0400404E044F0800401E047
:1019A00044F480742868816921F07001816129689C
:1019B00004204860002C05D0686A204368622846ED
:1019C000FFF77AFEBDE8F09F70B50446002C03D007
:1019D00094F8200010B104E0012070BD204600F012
:1019E0009DF82068016841F00101016000F0AAFC47
:1019F000054605260CE000F0A5FC401B0A2807D987
:101A0000606A40F40030606284F82060012070BD9C
:101A100020684068C007EED02068016821F002010C
:101A2000016000F08FFC05460CE000F08BFC401BD1
:101A30000A2807D9606A40F40030606284F82060A8
:101A4000012070BD206840688007EED4207E012808
:101A50003FD02068016821F080010160607E01288C
:101A60003DD02068016821F040010160A07E01287E
:101A70003BD02068016821F020010160E07E012850
:101A800039D02068016841F010010160207F0128F1
:101A900037D02068016821F008010160607F0128CB
:101AA00035D02068016821F004010160D4E9020109
:101AB0000843D4E90412114308436168491E0843EE
:101AC0002168C86100206062012084F820000020A5
:101AD00070BD2068016841F080010160BEE72068A8
:101AE000016841F040010160C0E72068016841F0F1
:101AF00020010160C2E72068016821F01001016047
:101B0000C4E72068016841F008010160C6E7206869
:101B1000016841F004010160C8E700002DE9F041CF
:101B200086B00446142101A8FFF7ACF83E4B3F4AAB
:101B3000DFF8F080186821683C4C03260227401C1F
:101B4000103200254FF0090C41452FD118600128B3
:101B500007D1106840F000701060106800F000704D
:101B60000090206840F008002060206800F0080025
:101B700000900196029703950496CDF814C001A930
:101B80002B4800F0E7FA00221146142000F08CFFE9
:101B9000142000F07BFF00221146152000F084FF86
:101BA000152000F073FF06B0BDE8F081DFF88480F7
:101BB0004145F8D1116841F080611160116801F070
:101BC000806100911860012807D1106840F0007012
:101BD0001060106800F000700090206840F0020073
:101BE0002060206800F002000090602001900297C1
:101BF00003950496CDF814C001A90F4800F0AAFA85
:101C000000221146402000F04FFF402000F03EFF30
:101C100000221146412000F047FF412000F036FF2E
:101C2000C1E700000064004004000020303802409A
:101C3000000C0240006800400004024070470000B1
:101C400010B5104A016891420BD10F4B0021A3F14E
:101C50002004221DFFF731FD201DA16ABDE81040C0
:101C600008470A4A91420CD1074B00212C33A3F1BB
:101C70002004221DFFF721FD201DA16ABDE81040B0
:101C8000084710BD006400406C0E00200068004052
:101C90007047000010B5104A016891420BD10F4BFC
:101CA0000121A3F12004221DFFF707FD201DA16AD9
:101CB000BDE8104008470A4A91420CD1074B012168
:101CC0002C33A3F12004221DFFF7F7FC201DA16A8D
:101CD000BDE81040084710BD006400406C0E0020B5
:101CE00000680040704770B5044694F82000012851
:101CF00005D0606A40F400206062012070BD0220BF
:101D000084F820002068016821F00101016000F0E2
:101D100019FB05460DE000F015FB401B0A2808D909
:101D2000606A40F400306062052084F820000120E1
:101D300070BD20684068C007EDD1606270BD70471B
:101D40007047704770477047704770472DE9F04102
:101D50000446A76D00F0F6FA054694F83500002613
:101D6000022806D08020606584F834600120BDE838
:101D7000F0812068016821F0160101602068416946
:101D800021F080014161206C08B9A06C20B120686D
:101D9000016821F0080101602068016821F001015B
:101DA00001600BE000F0CEFA401B052806D9202088
:101DB00034342062032060702670D8E72068006801
:101DC000C007EFD134343F2094F828108840B86021
:101DD0000120607026700020C9E790F835100229B4
:101DE00003D08021416501207047052180F835101E
:101DF0000068016821F001010160002070470000C7
:101E00002DE9F84304464FF00009CDF800906F48E3
:101E10004FF416510068B0FBF1F7A56D2E6894F8E9
:101E20005C00082202FA00F1314210D020680168FB
:101E300049070CD5016821F00401016094F85C00A9
:101E400002FA00F1A960606D40F00100606594F84D
:101E50005C104FF0010808FA01F0304208D0216808
:101E60004969090604D5A860606D40F0020060650C
:101E700094F85C1004208840304208D0216809683A
:101E8000890704D5A860606D40F00400606594F88F
:101E90005C1010208840304220D021680968090772
:101EA0001CD5A8602068016849030CD500680003B0
:101EB00004D4216C91B1204688470FE0A16C69B130
:101EC000204688470AE00168C90503D4016821F06B
:101ED00008010160216C09B12046884794F85C1024
:101EE0002020884030424CD021680968C90648D576
:101EF000A86094F8350005280BD0206801684903D4
:101F000030D50068000328D4616C51B3204688475F
:101F100037E02068016821F01601016020684169FE
:101F200021F080014161206C08B9A06C20B12068CB
:101F3000016821F00801016094F85C103F2088409E
:101F4000A86084F8358084F83490216D00293BD056
:101F500001B02046BDE8F0430847E16B09B12046D7
:101F600088470EE00168C90507D4016821F0100117
:101F7000016084F8358084F83490E16B09B1204623
:101F80008847606D00281FD0606DC00714D0052001
:101F900084F835002068016821F001010160009893
:101FA000401C0090B84203D820680068C007F6D1F2
:101FB00084F8358084F83490E16C002904D001B0B5
:101FC0002046BDE8F0430847BDE8F8831400002030
:101FD0002DE9F041044600F0B5F905465CB1022058
:101FE00084F83500002684F834602068016821F008
:101FF000010101600DE00120BDE8F08100F0A2F9CF
:10200000401B052805D920206065032084F8350091
:10201000F2E720680068C007F0D121680A6820480C
:102020000240D4E901031843D4E903352B43184394
:1020300063691843A3691843E3691843236A184383
:102040001043626A042A03D1D4E90B231A431043D4
:1020500008602068406920F00700656A294605434A
:10206000012704290DD1A06A0543E06A48B1204642
:102070000BF0E7FC28B14020606584F83570012042
:10208000BAE72068456120460BF018FD94F85C2003
:102090003F2191408160666584F835700020ABE790
:1020A0003F8010F02DE9F04104460025A66D94F81C
:1020B000340001280DD0012084F8340094F83570E4
:1020C0000020012F07D084F8340002252846BDE8FF
:1020D000F0810220FBE7022784F835706065204616
:1020E0000BF09AFC94F85C103F208840B0602068A8
:1020F000016841F016010160206C20B12068016880
:1021000041F0080101602068016841F001010160AF
:10211000DCE7000070B5044600F014F90546601CC9
:1021200002D004480078044400F00CF9401BA0429F
:10213000FAD370BD080000207047000010B50449B4
:102140000A68024202D00860FFF7F6FF10BD0000E7
:10215000143C01402DE9F84F0022DFF89C914FF02C
:10216000010803274FF00F0C09F1040AA9F1040B31
:1021700008FA02F50B682B40AB426ED10C7904F0E3
:102180000304012C01D0022C15D18668540007FAF3
:1021900004FE26EA0E06D1F80CE00EFA04FE4EEA22
:1021A000060EC0F808E04468AC430D79C5F300158D
:1021B0009540254345600C79E443A40708D0C568E1
:1021C000540007FA04F6B5438E68A6402E43C66055
:1021D0000C7904F00304022C11D1D40800EB84061E
:1021E000356A5407E40E0CFA04FE25EA0E05D1F810
:1021F00010E00EFA04FE4EEA050EC6F820E005686F
:10220000540007FA04F6B5430E7906F00306A6401B
:102210002E4306604C6814F4403F67D0374C256865
:1022200045F480452560246804F480440094344CCF
:1022300022F003052E19D6F8085894074FEA147EA9
:102240000CFA0EF4A5432F4CA04201D1002424E047
:102250002D4CA04202D101241FE047E02B4CA042AC
:1022600001D1022419E02A4CA04201D1032414E038
:10227000284CA04201D104240FE0274CA04201D1F8
:1022800005240AE0254CA04201D1062405E0244C97
:10229000A04201D1072400E0082404FA0EF42C43E4
:1022A000C6F80848D9F800409C434D68ED0200D5B7
:1022B0001C43C9F80040DAF800409C434D68AD0269
:1022C00000D51C43CAF80040DBF800409C434D6831
:1022D000AD0300D51C43CBF80040074D083D2C68EA
:1022E0009C434E68F60300D51C432C60521C102AF8
:1022F000FFF43EAFBDE8F88F083C0140443802408F
:10230000003001400000024000040240000802408A
:10231000000C02400010024000140240001802406D
:10232000001C0240426921EA02030A4043EA0241DA
:1023300081617047002A01D0816170470904816181
:1023400070470000014880687047000008000020C6
:1023500070B50446002C04D094F83D00002510B15F
:1023600006E0012070BD84F83C50204600F0ACFA35
:10237000242084F83D002068016821F001010160FB
:102380002068016841F4004101602068016821F47F
:102390000041016001F054F94F4B6168994203D844
:1023A0004E49884203D304E04D49884201D20120BE
:1023B00070BD4C49B0FBF1F12268566826F03F062B
:1023C0000E43566062689A4201D8491C07E04FF4F8
:1023D000967251434FF47A72B1FBF2F1491C2268B4
:1023E000166A26F03F06314311626168994210D89F
:1023F0004900401EB0FBF1F2521CC2F30B02042A4A
:1024000001D2042022E0B0FBF1F0401CC0F30B002D
:102410001CE0A268F2B301EBC10303EB0116431EFB
:10242000B3FBF6F35B1C43F480431B0549D092B326
:1024300001EBC10202EB0111401EB0FBF1F0401CA8
:10244000C0F30B0040F4804040F400402168CA69AA
:102450004CF6FF739A431043C861D4E90710014357
:102460002068026822F0C00211430160D4E9030130
:1024700001432068826848F2FF339A431143816028
:10248000D4E9051001432068C26822F0FF0211431D
:10249000C16001E00EE016E02068016841F0010132
:1024A00001602564202084F83D00256384F83E50B7
:1024B000002070BD01EB4106431EB3FBF6F35B1C2D
:1024C000B3E70120C2E701EB4101401EB0FBF1F090
:1024D000401CC0F30B00B7E7A086010080841E00FB
:1024E00000093D0040420F002DE9FF4F83B0044634
:1024F000DDE911988A469346109FFFF723FF0546B2
:1025000094F83D00202803D0022007B0BDE8F08FEA
:10251000192301229849204600950BF0FEFB08B1D3
:102520000220F2E794F83C00012807D0012084F84B
:102530003C0020680168C90702D005E00220E4E7FA
:10254000016841F0010101602068016821F4006127
:102550000160222084F83D00402084F83E000026DF
:1025600026646762A4F82A90608D20858348E06223
:10257000CDE900855A4651462046069B0BF0B4FA39
:1025800008B10120C1E7208D48B1012810D00228F0
:102590001CD02068416980690290794FE1E0206891
:1025A000416981690291016841F400710160F4E7B9
:1025B0002068016821F480610160206841698169B7
:1025C0000291016841F400710160E6E7206801684A
:1025D00021F4806101602068016841F400610160BC
:1025E0002068416980690290D7E703287ED80128D6
:1025F0000BD002281FD043460022394620460095C2
:102600000BF08BFBF0B301207FE72A4641462046C2
:102610000BF031FC08B1012077E720680069616A9E
:102620000870606A401C6062208D401E2085608DAD
:10263000401E608595E043460022394620460095BD
:102640000BF06BFB08B101205FE72068016841F4E3
:102650000071016020680069616A0870606A401C4E
:102660006062218D491E2185618D491E6185216829
:1026700009690170606A401C6062208D401E2085DF
:10268000608D00E002E0401E60856AE0206801681D
:1026900021F48061016020680069616A0870606AE5
:1026A000401C6062208D401E2085608D401E60852C
:1026B000434600223946204600950BF02EFB08B118
:1026C000012022E72068016841F400710160206860
:1026D0000069616A0870606A401C6062218D491E51
:1026E0002185618D491E6185216800E00BE0096943
:1026F0000170606A401C6062208D401E2085608DE4
:10270000401E60852DE02A46414620460BF0B3FB73
:1027100008B10120F9E620680069616A0870606A02
:10272000401C6062208D401E81B22185608D401E5C
:10273000608520684269D243520712D4032903D12D
:10274000016821F48061016020680069616A087095
:10275000606A401C6062208D401E2085608D401E96
:102760006085208D00287FF440AF20203C346070CD
:10277000A67026700020C8E6020010000000FFFFCF
:10278000040001002DE9FF4F83B00446DDE91198F4
:102790008A469346109DFFF7D5FD064694F83D0006
:1027A000202803D0022007B0BDE8F08F19230122B2
:1027B0004349204600960BF0B0FA08B10220F2E738
:1027C00094F83C00012807D0012084F83C002068E0
:1027D0000168C90702D005E00220E4E7016841F082
:1027E000010101602068016821F40061016021207D
:1027F00084F83D00402084F83E000027276465628D
:10280000A4F82A90608D20852E48E062CDE90086EC
:102810005A4651462046069B0BF006FA80B301202B
:10282000C1E73246414620460BF0F9FA48B1206C28
:10283000042804D12068016841F40071016001207E
:10284000B1E7606A216800780861656A6D1C65629D
:10285000208D401E80B22085618D491E61852368D0
:102860005969C94349070BD450B128781861606A87
:10287000401C6062208D401E2085608D401E60855A
:10288000208D0028CDD13246414620460BF09BFAE0
:1028900048B1206C042804D12068016841F400711B
:1028A000016001207FE71F3454F81F0C016841F4D8
:1028B000007101602020A077E7776777002072E73A
:1028C000020010000000FFFF2DE9F04387B005462D
:1028D000142102A8FEF7D6F93849286888426AD13F
:1028E00000263748016841F004010160016801F0E9
:1028F00004010191016841F001010160006800F0EC
:10290000010001904FF4007002904FF01208CDF8D2
:102910000C804FF00109CDF8109003240594042792
:10292000069702A92748FFF715FCB8010290CDF8D9
:102930000C80CDF810900594069702A92248FFF765
:1029400009FC1F481030016841F400010160006873
:1029500000F4000001901E4C1C4820604FF0C0683D
:10296000C4F80480A660E660071527616661A66169
:10297000E661266266622046FFF72AFB08B1FEF791
:102980008EFDAC63A5631148114C3030603420607B
:10299000C4F804804020A060E66027616661A661FB
:1029A000E661266266622046FFF712FB08B1FEF779
:1029B00076FD6C63A56307B0BDE8F083005C004062
:1029C00030380240000802400000024040600240EF
:1029D000E804002002488168027811448160704751
:1029E0000800002010B50B48016841F40071016037
:1029F000016841F480610160016841F48071016007
:102A0000032000F071F80F2000F006F800F026F81F
:102A1000002010BD003C024070B504460D4D4FF43F
:102A20007A712878B1FBF0F00B490968B1FBF0F03E
:102A300001F00DFB08B1012070BD102C07D200225F
:102A40002146501E00F030F86C60002070BD01205F
:102A500070BD0000080000201400002008B50A48DE
:102A6000016841F480410160006800F480400090FA
:102A70000548001F016841F080510160006800F0C6
:102A80008050009008BD000044380240002809DB57
:102A900000F01F02012191404009800000F1E02078
:102AA000C0F8001170470000F0B40D460D4B1B68D4
:102AB000C3F30223C3F10704042C00D90424191D15
:102AC000072901D2002300E0DB1E012606FA04F1EB
:102AD000491E294099409E40761E16403143F0BC65
:102AE0000BF073BF0CED00E000F00701054A106821
:102AF0004FF6FF03184040EA0120034908431060E5
:102B0000704700000CED00E00000FA057047006817
:102B100041620020704770B50368586A002907D0E9
:102B20009C6A00EB144400204FF48275491E0AE0B1
:102B300040EA024098620DE005EB80069E5904EBE6
:102B40001644401CC0B28842F6D305EB810144EA2A
:102B500002405850002070BDD0F8E00403F0CFBC14
:102B600001EBC10200EB8202D0F8E004126A03F02C
:102B7000F3BB01EBC10200EB8202D0F8E004D2F813
:102B8000602203F057BCD0F8E00403F0BABC0A0698
:102B900001F00F0101EBC10100EB810101D51431FE
:102BA00001E001F51571006804F044BB70B50446FE
:102BB0000B0601F00F0000EBC00104EB81014FF0A8
:102BC00001024FF0000502D514314A7002E001F510
:102BD00015714D70087094F89404012808D084F899
:102BE0009424206804F03AF884F89454002070BDCE
:102BF000022070BD70B5044601F00F0022799042AA
:102C000001D9012070BD0B0601F00F0101EBC101DC
:102C100004EB81014FF001024FF0000502D51431A1
:102C20004A7002E001F515714D708D70087094F8CE
:102C30009404012808D084F89424206804F078F9DA
:102C400084F89454002070BD022070BD01F00F0183
:102C500001EBC10100EB8100D0F8680270472DE95B
:102C6000F04104460F0601F00F0000EBC00104EB39
:102C700081014FF001064FF0000502D514314E706E
:102C800002E001F515714D700870C2F30A028A6006
:102C90000B714A7802B14883022B00D14D7194F830
:102CA0009404012809D084F89464206803F042FF5A
:102CB000284684F89454BDE8F0810220FBE710B563
:102CC00001F00F0404EBC40100EB810101F5157163
:102CD000CA600B6100234B614B700C708379012B30
:102CE00000D1CA618279006804F07AF9002010BD31
:102CF00070B504460D46217905F00F00884201D9D0
:102D0000012070BD29064FF000064FF0010206D5E4
:102D100000EBC00104EB810114314A7006E005EBC1
:102D2000C50104EB810101F515714E708A700870C0
:102D300094F89404012807D084F89424206804F0BF
:102D400023F9280702D007E0022070BDA17904F220
:102D50009C42206804F0C2F884F89464002070BD9E
:102D600010B501F00F0404EBC40100EB8101143134
:102D7000CA600B6100234B6101234B700C70837997
:102D8000012B00D1CA618279006804F029F9002082
:102D900010BD2DE9F84F04462568284604F0F4FAE2
:102DA00000287ED1206804F01BFB002879D0D5F8DC
:102DB0000808C0F30D20C4F8D404206804F010FB08
:102DC000800704D52068416901F002014161206853
:102DD00004F006FBC10604F29C40009035D5206843
:102DE000816921F0100181612F6A07F00F0000EB6B
:102DF000C00004EB800606F51576C7F343400228B1
:102E000002D0062812D01BE047F6F070074217D018
:102E1000C7F30A1217462846F16804F0E5FAF0688D
:102E20003844F06070693844706109E0082228462F
:102E3000009904F0D9FA7069C7F30A110844706167
:102E40002068816941F010018161206804F0C8FAAE
:102E500000034FF0080B4FF000094FF001085ED55A
:102E60000026206804F09BFA824655E05FEACA70AB
:102E70004FD0F1B2206804F0ABFA0746F80707D04C
:102E800005EB4610C0F8088B314620460BF004F9DC
:102E9000380709D505EB4610C0F808BB3146204677
:102EA00000E0F8E10BF0D4F8F80604D505EB461085
:102EB0001021C0F8081BB8071CD56869000605D5A5
:102EC000D5F8040840F48061C5F8041806EBC60084
:102ED00004EB800000F51570C178012905D180F858
:102EE0000390F1B2204600F0DCF905EB4611022018
:102EF000C1F8080BB80604D505EB46102021C0F830
:102F0000081BB80405D505EB46104FF40051C0F876
:102F1000081B761C4FEA5A0ABAF1000FA6D12068A6
:102F200004F05EFA40036CD5206804F031FA824662
:102F3000002663E05FEACA705DD0F1B2206804F059
:102F400035FA0746F80723D006F00F0108FA01F01A
:102F5000D5F834188143C5F8341805EB4610C0F88D
:102F60000889A07901280FD106EBC60004EB800088
:102F7000D0E907211144016236B9606A20B920689E
:102F80000121009A03F0AAFFF1B22046FFF7E8FD05
:102F9000380703D505EB4610C0F808B9F80604D584
:102FA00005EB46101021C0F80819780604D505EB8A
:102FB00046104021C0F80819B80716D531462846F2
:102FC00004F0B0F906EBC60004EB80001430C178C1
:102FD000012905D180F80390F1B2204600F05DF997
:102FE00005EB46110220C1F80809380603D5314621
:102FF00020460AF0DFFF761C4FEA5A0ABAF1000FAA
:1030000098D1206804F0ECF9002811DAD5F804080A
:1030100020F00101C5F8041894F8CC04012829D047
:10302000204600F006FA2068416901F00041416144
:10303000206804F0D5F900050BD5D5F80808C007BD
:1030400002D0204600F038FA2068416901F400619E
:103050004161206804F0C4F9C00461D5D5F80408C2
:1030600020F00101C5F804181021206804F05AF975
:10307000002120E084F8CC9400212046FFF746FD93
:10308000D1E705EB411000F510604FF67F3282600A
:10309000036823F400130360C0F80822D0F800226C
:1030A00022F40012C0F80022D0F8002242F00062A0
:1030B000C0F80022491C20798842E2D8D5F81C08C3
:1030C00040F00111C5F81C18E07B60B1D5F8840808
:1030D00040F00B01C5F88418D5F8440840F00B0106
:1030E000C5F844180CE0D5F8140842F22B01084347
:1030F000C5F81408D5F8100840F00B01C5F81018F1
:10310000D5F8000820F4FE61C5F80018A179206800
:10311000009A03F0E3FE2068416901F480514161A7
:10312000206804F05DF9800415D5206803F044FDA3
:10313000206804F019F9E07100F07CFA0146E279A8
:10314000206804F0B7F9204600F05CF92068416976
:1031500001F400514161206804F042F9000707D5ED
:10316000204600F06AF92068416901F008014161D8
:10317000206804F035F9000615D5A86920F0800113
:10318000A96101260CE006EBC60004EB800090F874
:103190005702012803D1F1B22046FFF7F8FC761C54
:1031A0002079B042EFD8206804F01AF9C0021FD588
:1031B000012615E005EB4610D0F8001906EBC60015
:1031C00004EB8000027E012A09D1002907DA80F889
:1031D0001780F0B240F080012046FFF7D8FC761C43
:1031E0002079B042E6D82068416901F4801141613C
:1031F000206804F0F5F8800230D5012026E005EBC8
:103200004011D1F8001B00EBC00204EB820292F8DF
:103210005832012B19D1002917DA94F8D43401F46B
:10322000803103F0010399420FD182F85782A969D6
:1032300041F08002AA616969090606D4D5F804083C
:1032400040F40070C5F8040803E0401C2179814275
:10325000D5D82068416901F400114161206804F06B
:10326000BFF8400007D52046FFF776FC206841698B
:1032700001F080414161206804F0B2F840070AD5AE
:1032800020684568680702D52046FFF77CFC206867
:10329000416829434160BDE8F88FD0F8E00403F0AD
:1032A00084B9D0F8E00403F095B9F8B50446002CD1
:1032B00005D0266894F89504002510B106E0012099
:1032C000F8BD84F89454204600F05AF8032084F89E
:1032D0009504B6F1A04F00D1A571206803F0F8FD68
:1032E000207C8DF8000094E80F0003F073FC0226A8
:1032F00018B184F895640120F8BD0021206804F01D
:1033000092F818B184F895640120F8BD00210127D6
:103310000CE001EBC10004EB800047750175C1852D
:103320000576C56105624562491CC9B220798842AB
:10333000EFD800210DE001EBC10004EB800000F5A7
:1033400015704570017005718560C5600561491C87
:10335000C9B220798842EED8207C8DF8000094E82C
:103360000F0003F0FBFC18B184F895640120F8BD50
:10337000657484F89574206803F0E2FC0020F8BDC1
:1033800010B586B00446142101A8FDF77BFC206827
:10339000B0F1A04F2FD100211848026842F001027D
:1033A0000260006800F0010000904FF4C0500190EE
:1033B000022002900391032004900A20059001A9A5
:1033C0000F48FEF7C7FE0D48001D016841F080015F
:1033D00001600A481430016841F4804101600068CE
:1033E00000F480400090002211464320FFF75CFB70
:1033F0004320FFF74BFB06B010BD00003038024001
:103400000000024070B504460125E07900280ED086
:10341000022801D0FEF743F82946D4F8E00403F06F
:103420004AF9D4F8E004BDE8704003F0FDB8002587
:10343000F2E7D0F8E00403F027B9D0F8E00403F095
:103440002DB910B5044694F8940401280AD001203F
:1034500084F894046174206804F015F8002084F85E
:10346000940410BD022010BDD0F8E02400F29C416D
:10347000104603F02CB910B50446206894F8941453
:10348000012909D0012184F89414C168490609D59D
:10349000617B012902D005E0022010BD816B41F45F
:1034A00080318163206803F017FF206803F03AFC45
:1034B000002084F8940410BD10B50446D4F8E0044C
:1034C00003F047F92068D0F8001E41F00101C0F870
:1034D000001EE07A002804D00248016841F006018D
:1034E000016010BD10ED00E02DE9F04704460D46E7
:1034F000002C13D0DFF82891D9F80000EFB200F0CB
:103500000700A8420CD289F80070D9F8000000F03A
:103510000700A84204D00120BDE8F0870120FBE7A6
:103520002068404E810712D5400703D5306840F42B
:10353000E05030602078000703D5306840F46040E8
:1035400030603068A16820F0F000084330602078D7
:10355000C00731D0334960680839012808D00228F3
:103560000BD0032809D0096889070BD40120D3E7C1
:103570000968890306D40120CEE70968890101D4CE
:103580000120C9E7316821F0030101433160FEF7F2
:10359000D9FE804641F2883A07E0FEF7D3FEA0EB61
:1035A0000800504501D90320B6E73068616800F093
:1035B0000C00B0EB810FF0D1D9F8000000F007004B
:1035C000A84209D989F80070D9F8000000F0070076
:1035D000A84201D001209FE72078400705D5306838
:1035E000E16820F4E050084330602078000706D5F9
:1035F0003068216920F4604040EAC100306000F08A
:103600003FF83168084AC1F30311515CC8400749CB
:10361000086007480068FFF7FFF900207CE700001A
:10362000003C024008380240181101081400002034
:103630000C000020014800687047000014000020C2
:1036400000B5FFF7F7FF04490968044AC1F3822176
:10365000515CC84000BD0000083802402811010834
:1036600000B5FFF7E7FF04490968044AC1F3423196
:10367000515CC84000BD0000083802402811010814
:1036800010B51748006810F00C01164816D0164BFC
:10369000042912D0082911D1114C241F216801F0EE
:1036A0003F02216849020AD52068C0F38810A0FBB8
:1036B00003010023FDF79CFA09E0184610BD2168BC
:1036C0000023C1F38811A1FB0001FDF791FA2168E5
:1036D000C1F30141491C4900B0FBF1F010BD0000ED
:1036E000083802400024F400001BB7002DE9F84F11
:1036F0000446002C13D02078DFF8A083C007A8F17F
:10370000040556D008F104000168C1F381010129C4
:103710000CD00068C0F38100022803D00DE0012026
:10372000BDE8F88FD8F80000400206D5286880036D
:103730003FD5606870BB0120F2E76068B0F5803F5C
:1037400010D0B0F5A02F12D0286820F48030286067
:10375000286820F4802028606068E0B1FEF7F2FD60
:10376000064614E0286840F480302860F4E72868B2
:1037700040F480202860286840F480302860EBE71F
:10378000FEF7E0FD801B642801D90320C8E7286804
:103790008003F5D50DE0FEF7D5FD064606E0FEF701
:1037A000D1FD801B642801D90320B9E72868800374
:1037B000F5D42078BA4F80074FF0000948D5B748B4
:1037C000001D016811F00C0F08D00068C0F38100E3
:1037D000022813D1D8F8000040020FD428688007CF
:1037E00004D5E068012801D0012099E72868216903
:1037F00020F0F80040EAC100286029E0E068B8B194
:1038000001203860FEF79EFD064606E0FEF79AFDB1
:10381000801B022801D9032082E728688007F5D59C
:103820002868216920F0F80040EAC10028600FE014
:10383000C7F80090FEF786FD064606E0FEF782FD1B
:10384000801B022801D903206AE728688007F5D485
:103850002078000729D5DFF844A2924861690AF16F
:10386000700A89B101210160FEF76CFD064606E091
:10387000FEF768FD801B022801D9032050E7DAF823
:1038800000008007F4D510E0C0F80090FEF75AFD64
:10389000064606E0FEF756FD801B022801D90320EC
:1038A0003EE7DAF800008007F4D42078400778D5A6
:1038B0004FF0000A79483C300068C0000BD47748CC
:1038C0003C30016841F080510160006800F0805098
:1038D00000904FF0010ADFF8D0B1DBF80000C0051E
:1038E00014D4DBF8000040F48070CBF80000FEF741
:1038F00029FD064606E0FEF725FD801B022801D9BA
:1039000003200DE7DBF80000C005F4D5634EA06886
:103910006C3601280FD0052812D0306820F0010045
:103920003060306820F004003060A068F8B1FEF725
:1039300009FD834617E0306840F001003060F4E78D
:10394000306840F004003060306840F001003060C2
:10395000EBE7FEF7F7FCA0EB0B0141F28830814268
:1039600001D90320DCE630688007F2D510E0FEF7CD
:10397000E9FC834609E0FEF7E5FCA0EB0B0141F210
:103980008830814201D90320CAE630688007F2D42A
:10399000BAF1010F05D141483C30016821F0805156
:1039A0000160A069C0B33D49091D09684FF0FF36A9
:1039B000C1F38101022946D0022805D0C7F86090E2
:1039C000FEF7C0FC04463AE0C7F86090FEF7BAFC88
:1039D000814607E0FEF7B6FCA0EB0900022801D9FA
:1039E00003209DE628688001F4D4D4E90701084348
:1039F000616AA26A890106EB520241EA0241084368
:103A000094F82C1040EA0160C8F8000001203866E4
:103A1000FEF798FC044607E03DE0FEF793FC001B30
:103A2000022801D903207BE628688001F5D532E021
:103A3000FEF788FC001B022801D9032070E62868E5
:103A40008001F5D427E0012823D0D8F80000E269EE
:103A500000F4800191421AD1226A00F03F019142A4
:103A600015D147F6C071626A0140B1EB821F0ED1D9
:103A7000A26A00F4403106EB5202B1EB024F06D1CC
:103A800094F82C1000F07060B0EB016F03D00120AF
:103A900046E6012044E6002042E6000004380240E9
:103AA00000004742800E474200700040704770B5EA
:103AB0000446002C09D0606A002540B1256165618B
:103AC000A56294F8510040B10CE0012070BD60681F
:103AD000B0F5827FF4D0E561F2E784F850502046DB
:103AE00000F044F8022084F851002068016821F0B9
:103AF00040010160A088218900F4827001F4044132
:103B00000843A18901F400610843217C01F002010E
:103B10000843217D01F001010843218B01F400716C
:103B20000843217F01F03801084394F8201001F088
:103B300080010843218D01F4005108432168086089
:103B4000A069042101EA104094F8241001F010014A
:103B50000843216848602068C16921F40061C1619F
:103B60006565012084F85100002070BD2DE9F04703
:103B700086B00546142101A8FDF784F83F4928685E
:103B8000884278D100263E48016841F480510160A6
:103B9000006800F48050009039481438016841F002
:103BA00002010160016801F002010091016841F029
:103BB00001010160006800F00100009018200190F0
:103BC0004FF00208CDF808804FF00109CDF80C90B5
:103BD000032704970524059401A92A48FEF7BAFA99
:103BE00080200190CDF80880CDF80C9004970594C2
:103BF00001A92548FEF7AEFA254C244820604FF075
:103C0000C068C4F80480A660E6604FF48069C4F818
:103C100010906661A661E661380420624FF0040AE4
:103C2000C4F824A0A762E66226632046FEF7D0F916
:103C300008B1FDF734FCEC64A5631448144C18304B
:103C400060342060C4F804804020A060E660C4F8BE
:103C500010906661A661E661C0022062C4F824A0EB
:103C6000A762E66226632046FEF7B2F908B1FDF7C7
:103C700016FCAC64A56306B0BDE8F08700300140D7
:103C80004438024000040240000002404064024008
:103C900000060020704770472DE9FF4F81B00446B1
:103CA0000E9E93461F460125FEF74CFB804694F876
:103CB0005100616801280AD0B1F5827F03D1A16863
:103CC00009B9042803D0022005B0BDE8F08F02989E
:103CD000A0B3BBF1000F32D0380030D094F85000C0
:103CE00001282ED04FF0010A84F850A094F851001A
:103CF000042802D0052084F851004FF00009C4F8D0
:103D00005490C4F838B0E787A78702982063E78605
:103D1000A786C4F84090C4F844902068016849061A
:103D200003D4016841F040010160E068B0F5006F24
:103D300009D06068F0B3012F4DD082E0FFE7012089
:103D4000C2E70220C0E7606808B1012F3CD1206BB8
:103D500021680088C860206B801C2063E08E401EB4
:103D6000E08631E02068816889070DD5E18E59B180
:103D7000012D09D1216B0988C160206B801C206353
:103D8000E08E401EE086002520688168C9070BD0C0
:103D9000E18F49B1C068A16B0880A06B801CA06353
:103DA000E08F401EE0870125FEF7CCFAA0EB08006B
:103DB000B04200E00FE007D3701C05D084F851A09A
:103DC00084F8509003207FE7E08E0028CAD1E08F6E
:103DD0000028C7D13BE0206B216800780873206B76
:103DE000401C2063E08E401EE0862AE02068816847
:103DF00089070DD5E18E59B1012D09D1216B0978C3
:103E00000173206B401C2063E08E401EE08600257D
:103E100020688168C9070BD0E18F49B1C068A16BE8
:103E20000870A06B401CA063E08F401EE087012556
:103E3000FEF788FAA0EB0800B04201D3701C12D143
:103E40008EB1E08E0028D1D1E08F0028CED142463D
:103E5000314620460AF024FA58B12020606584F8E3
:103E60005090012030E784F851A084F8509003204E
:103E70002AE7A06818B92068C1688068009084F8B3
:103E800051A084F85090606D08B101201CE700201B
:103E90001AE7000070B5044694F8510065680128DF
:103EA00008D0B5F5827F03D1A5680DB9042801D0EB
:103EB000022070BDC1B3BAB3B3B394F85000012867
:103EC00035D0012084F8500094F85100042802D025
:103ED000052084F85100002565652163A386E386EB
:103EE000A263A387E3872564656494F851000428DE
:103EF0001FD0E16C2C480864E16C2C48C863E16C6D
:103F00002B48C864E06C0565E38F2168A26B0C3117
:103F1000E06CFEF7C7F898B1606D40F01000606586
:103F200084F85050012070BDFFE70120FBE702201C
:103F3000F9E7E16C1F480864E16C1F48C863DEE7DD
:103F40002068416841F001014160A06C0564A06CEB
:103F5000C563A06CC564A06C0565E38E2268216B07
:103F60000C32A06CFEF79EF838B1606D40F0100086
:103F7000606584F850500120D5E720680168490643
:103F800003D4016841F04001016084F8505020687A
:103F9000416841F0200141602068416841F0020120
:103FA00041600020BFE7000035E400081DE3000881
:103FB0007DE1000897E200089FE1000810B5006865
:103FC0001C4988420FD11C4C21896068FEF7AAF970
:103FD00004F18A01B4F80A21D4F81031BDE8104088
:103FE000A1F180001847154988420FD1144C21894E
:103FF0006068FEF797F904F18A01B4F80A21D4F851
:104000001031BDE81040A1F1800018470D498842E9
:104010000FD10D4C21896068FEF784F904F18A0103
:10402000B4F80A21D4F81031BDE81040A1F18000A5
:10403000184710BD00300140E00E0020003800405D
:10404000F40F0020003C004008110020704710B51C
:10405000401EB0F1807F01D3012010BD4FF0E0245D
:1040600060610F2160170AF0B0FC0020A0610720FA
:104070002061002010BD7047704710B590F83C20BB
:10408000012A22D0012280F83C20CA6800238C68D3
:1040900022F4407222434C6822F4806222430C686E
:1040A00022F4006222430C6922F4805222434C69BC
:1040B00022F400522243C96922F480420A43016873
:1040C0004A6480F83C30002010BD022010BD000082
:1040D00070B590F83C20012A31D0012680F83C6070
:1040E000022280F83D2002685468936824F070052D
:1040F0000C682C435460134C0268A24214D0B2F1F5
:10410000804F11D0104CA2420ED0104CA2420BD0C6
:104110000F4CA24208D00F4CA24205D00E4CA24236
:1041200002D00E4CA24204D123F080034968194307
:1041300091603C30467000210170002070BD02206B
:1041400070BD000000000140000400400008004075
:10415000000C0040000401400040014000180040F5
:1041600010B50446002C03D094F83D0010B107E0D0
:10417000012010BD002084F83C00204600F016F815
:10418000022084F83D00211D206801F01FFC012061
:104190003D3460726070A070E07020716071A07139
:1041A000E07120722070002010BD000008B500688A
:1041B0003D493E4A884208D1106840F00100106035
:1041C000106800F00100009008BD3849091FB0F1E7
:1041D000804F14D0364B98421AD1086840F0020044
:1041E0000860086800F002000090002211461D20BF
:1041F000FEF75AFCBDE808401D20FEF747BC0868E2
:1042000040F001000860086800F00100009008BD5F
:10421000284B984211D1086840F0040008600868F3
:1042200000F004000090002201211E20FEF73CFC5B
:10423000BDE808401E20FEF729BC1F4B984211D153
:10424000086840F008000860086800F00800009066
:10425000002201213220FEF727FCBDE80840322071
:10426000FEF714BC154B984211D1086840F01000BD
:104270000860086800F01000009000221146362007
:10428000FEF712FCBDE808403620FEF7FFBB0C49E4
:104290008842BCD1106840F400301060106800F40F
:1042A0000030009008BD000000000140443802408A
:1042B0000004004000080040000C004000100040D6
:1042C0000044014090F83D10012901D001207047C1
:1042D000022180F83D100168CA6842F00102CA60FC
:1042E00000681449884214D0B0F1804F11D01249AF
:1042F00088420ED0114988420BD01149884208D01B
:104300001049884205D01049884202D00F4988429E
:1043100009D1816801F00701062908D0016841F040
:104320000101016003E0016841F00101016000202A
:1043300070470000000001400004004000080040F9
:10434000000C004000040140004001400018004003
:1043500070B50446002594F83C00012817D00126CA
:1043600084F83C60022084F83D002068826822F0D6
:10437000770222F47F4282600868502838D00DDC32
:10438000202853D005DC90B3102811D14EE0022034
:1043900070BD30284AD040280AD13DE0602831D095
:1043A00070280CD0B0F5805F03D0B0F5005F12D05C
:1043B00001253C34667000202070284670BDCB6813
:1043C000D1E90121206801F07CFB2068816841F07F
:1043D00077018160EDE7CB68D1E90121206801F028
:1043E00070FB2068816841F480418160E1E71DE055
:1043F000CA68496820680AF0C1F8502120680AF0AC
:10440000B5F8D6E7CA68496820680AF0C8F860219C
:1044100020680AF0ABF8CCE7CA68496820680AF05F
:10442000ADF8402120680AF0A1F8C2E722680146F1
:1044300010460AF09BF8BCE770472DE9F0410446AE
:104440002068C56806694FF00007B10714D5A907B1
:1044500012D5F91E0161012020772068806980074C
:1044600003D02046FFF7E8FF05E0204600F0F8F80B
:10447000204600F088F92777700717D5680715D50B
:1044800021686FF0040008610220207720688069AD
:1044900010F4407F03D02046FFF7CEFF05E0204612
:1044A00000F0DEF8204600F06EF92777300716D5C9
:1044B000280714D521686FF00800086104202077D0
:1044C0002068C069800703D02046FFF7B5FF05E0EC
:1044D000204600F0C5F8204600F055F92777F00691
:1044E00017D5E80615D521686FF01000086108207F
:1044F00020772068C06910F4407F03D02046FFF782
:104500009BFF05E0204600F0ABF8204600F03BF9A9
:104510002777F00708D0E80706D021686FF0010080
:104520000861204600F0DCF9300608D5280606D5DB
:1045300021686FF0800008612046FFF79CFD70063F
:1045400008D5680606D521686FF04000086120464E
:1045500000F042FAB0060AD5A80608D521686FF027
:10456000200008612046BDE8F041FFF785BDBDE8A9
:10457000F081000030B587B00446142102A8FCF792
:1045800081FB2F4D206800232E4902220124A842DE
:1045900013D1086840F010000860086800F01000AF
:1045A000019010030290039204930593069402A9CC
:1045B0002548FDF7CFFD07B030BDB0F1804F15D0D5
:1045C000224DA84225D1086840F00800086008681C
:1045D00000F00800019028140290039204930593C0
:1045E000069202A91A48FDF7B5FDE4E7086840F015
:1045F00001000860086800F00100019004200290AA
:10460000039204930593069402A91248FDF7A2FDB4
:10461000D1E7114B9842CED1086840F020000860E5
:10462000086800F02000019040200290039204945A
:1046300005920320069002A90848FDF78BFDBAE712
:1046400000000140303802400010024000080040E5
:10465000000C0240000002400044014000140240EF
:10466000704770B504460D46002694F83C000128BA
:104670000FD0012084F83C006AB1042A1FD0082A18
:1046800032D00C2A44D00126002084F83C00304669
:1046900070BD022070BD2946206809F0D1FE206857
:1046A000816941F0080181612068816921F004017C
:1046B0008161206881692A6911438161E4E72946A3
:1046C000206801F009FA2068816941F40061816184
:1046D0002068816921F480618161206881692A698B
:1046E00041EA02218161CFE72946206809F0DCFE1A
:1046F0002068C16941F00801C1612068C16921F0E9
:104700000401C1612068C1692A691143C161BBE725
:104710002946206809F000FF2068C16941F4006162
:10472000C1612068C16921F48061C1612068C169EB
:104730002A6941EA0221C161A6E710B50446002CAE
:1047400003D094F83D0010B107E0012010BD002017
:1047500084F83C00204600F015F8022084F83D0063
:10476000211D206801F032F901203D346072607033
:10477000A070E07020716071A071E07120722070F3
:10478000002010BD7047704710B50446002909D0BD
:1047900004290AD008290BD094F8410001280AD036
:1047A000012010BD94F83E00F8E794F83F00F5E7CB
:1047B00094F84000F2E70220A9B3042937D0082971
:1047C00038D084F841000122206801F06DF91E49BB
:1047D00020681E4A884201D0904203D1436C43F4C2
:1047E000004343642068884213D0B0F1804F10D05A
:1047F000174988420DD0174988420AD01649884285
:1048000007D0904205D01549884202D01449884209
:1048100013D1816801F00701062912D0016841F027
:10482000010101600DE0FFE784F83E00CBE784F86A
:104830003F00C8E784F84000C5E7016841F0010186
:104840000160002010BD0000000001400004014094
:104850000004004000080040000C004000400140FF
:104860000018004030B504460D4600222946206855
:1048700001F01AF9184A41F2111120688B10904288
:1048800002D0164A904209D1026A0A4206D1026A4F
:104890001A4203D1426C22F4004242642068026A48
:1048A0000A4206D1016A194203D1016821F00101CF
:1048B000016001203DB1042D08D0082D09D084F8F5
:1048C0004100002030BD84F83E00FAE784F83F0044
:1048D000F7E784F84000F4E70000014000040140DD
:1048E00000682F49884202D12E4840680047B0F145
:1048F000804F06D02C49884207D12A4810304068A2
:10490000004728480830406800472849884245D079
:104910002749884203D12348203040680047254971
:10492000884203D11F482830406800472249884206
:1049300003D11C483030406800472049884203D1E9
:1049400018483830406800471D49884203D115484F
:104950004030406800471B49884203D11148483025
:10496000406800471849884203D10E4850304068DB
:1049700000471649884203D10A485830406800472A
:104980001349884203D10748603040680047114905
:10499000884203D1034868304068004770470000F0
:1049A0000000014084020020000400400008004094
:1049B000000C0040001000400014004000040140C2
:1049C0000040014000440140004801400018004000
:1049D000001C004000200040704738B5044694F8A1
:1049E0004200202801D0022038BD51B14AB1012037
:1049F000206300206063204601F0A8F8014611B151
:104A000005E0012038BD206B012802D001210846B5
:104A100038BD206802684068009020680C3050E87B
:104A2000002F42F0100240E80023002BF5D1EEE702
:104A300070B50446364A206890420ED1354D05F1D6
:104A40008400D5F8082106469047B5F80421314680
:104A50002046BDE87040FFF7C0BF2F4A90420ED1FC
:104A60002E4D05F18400D5F8082106469047B5F88B
:104A7000042131462046BDE87040FFF7AEBF284A0A
:104A800090420ED1274D05F18400D5F80821064645
:104A90009047B5F8042131462046BDE87040FFF745
:104AA0009CBF214A90420ED1204D05F18400D5F8DB
:104AB000082106469047B5F8042131462046BDE856
:104AC0007040FFF78ABF1A4A90420ED1194D05F186
:104AD0008400D5F8082106469047B5F804213146F0
:104AE0002046BDE87040FFF778BF134A90420ED1D0
:104AF000124D05F18400D5F8082106469047B5F817
:104B0000042131462046BDE87040FFF766BF70BD06
:104B1000001001401C120020004400402813002017
:104B20000048004034140020004C00404015002094
:104B3000005000404C16002000140140581700207F
:104B400010B5044620684069C0F3C01094F84110C5
:104B5000212911D180B12068143050E8001F21F0C4
:104B6000800140E80012002AF5D1A06B08B1FDF7E2
:104B7000EDF8204609F0A2FE20684069C0F38010DD
:104B800094F84210222911D180B12068143050E8E5
:104B9000001F21F0400140E80012002AF5D1E06B2F
:104BA00008B1FDF7D3F8204609F061FE002010BDE2
:104BB00070470000F8B5044622681068D168536950
:104BC00000F00F06002E08D1850606D58D0604D507
:104BD0002046BDE8F84009F0A3BD0025002E66D0B0
:104BE00003F0010601F49077374360D0C20705D087
:104BF000CA0503D5626C42F001026264420705D522
:104C0000DA0703D0626C42F002026264820705D5C3
:104C1000DA0703D0626C42F004026264020707D52F
:104C200001F02002324303D0626C42F00802626459
:104C3000626C002A31D0800604D5880602D5204651
:104C400009F06EFD20684069C0F38010616C0907AF
:104C500000D438B3204609F00AFE206840694006B7
:104C60001CD52068143050E8001F21F0400140E8B6
:104C70000012002AF5D1E06B60B159490165E06B83
:104C8000FDF7ABF8002808D0E06B016D01B0BDE87E
:104C9000F04008472046FFF78BFFF8BD2046FFF79E
:104CA00087FFF8BD2046FFF783FF6564F8BD236BDF
:104CB000012B7DD1C3067BD5CB067FD5106850680C
:104CC000009050694FF0200340064FF0020644D593
:104CD000E16B0868406880B20028E7D0A28D82426C
:104CE000E4D9E085C869B0F5807F2DD020680C300C
:104CF00050E8001F21F4807140E80012002AF5D12D
:104D00002068143050E8001F21F0010140E8001233
:104D1000002AF5D12068143050E8001F21F040012E
:104D200040E80012002AF5D184F84230256320685B
:104D30000C3050E8001F21F0100140E80012002A5A
:104D4000F5D1E06BFDF702F86663A08DE18D401AA6
:104D500081B22046FFF76CFEF8BDA08DE18D401AB0
:104D600081B2E08D0028F7D00029F5D020680C3002
:104D700050E8002F22F4907240E80027002FF5D170
:104D80002068143050E8002F22F0010240E800278C
:104D9000002FF5D184F84230256320680C3050E8AC
:104DA000002F22F0100240E80023002BF5D100E094
:104DB00004E066632046FFF73BFEF8BD020606D519
:104DC0000A0604D52046BDE8F84009F00DBD4006AE
:104DD000F3D54806F1D52046BDE8F84009F0BFBD3F
:104DE00079E9000870B50446002C04D094F841001D
:104DF000002510B106E0012070BD84F84050204627
:104E000000F024F8242084F841002068C16821F4CF
:104E10000051C160204609F0F9FB2068016921F4C6
:104E2000904101612068416921F02A0141612068B7
:104E3000C16841F40051C1606564202084F84100DC
:104E400084F842006563002070BD00002DE9F04F3A
:104E500087B00446142102A8FBF714FFAB48AA4B05
:104E600014382268A9490326002507154FF0020BC4
:104E70004FF0070A4FF004084FF480399A427ED170
:104E80000A6842F010020A60096801F010010191FD
:104E9000016841F002010160016801F00201019125
:104EA000016841F001010160006800F0010001901B
:104EB00080200290CDF80CB004950596CDF818A08E
:104EC00002A99348FDF746F978100290CDF80CB08E
:104ED00004950596CDF818A002A98E48FDF73AF979
:104EE000DFF838A28C48CAF800004FF0006BCAF80F
:104EF00004B0CAF80850CAF80C50CAF81070CAF8C2
:104F00001450CAF81850CAF81C503004CAF82000CF
:104F1000CAF82480CAF82860CAF82C50CAF8305061
:104F20005046FDF755F808B1FCF7B9FAC4F83CA0B3
:104F3000CAF838407848794E303060363060C6F86C
:104F400004B04020B060F56037617561B561F5610E
:104F5000C6F8209075623046FDF73AF808B1FCF7C4
:104F60009EFAA663B463002211462520FDF79CFD3E
:104F70002520FDF78BFD07B0BDE8F08FFFE7684BFC
:104F80009A4252D16149091F0A6842F480220A609C
:104F9000096801F480210191016841F00401016078
:104FA000006800F0040001904FF440600290CDF8DA
:104FB0000CB004950596CDF818A002A95948FDF744
:104FC000C9F8DFF858A158480AF1C00ACAF8000029
:104FD0004FF00060CAF80400CAF80850CAF80C5034
:104FE000CAF81070CAF81450CAF81850CAF81C5001
:104FF000CAF82090CAF82480CAF82860CAF82C5051
:10500000CAF830505046FCF7E3FF08B1FCF747FA06
:10501000C4F83CA0CAF83840002211462720FDF70A
:1050200043FD2720FDF732FDA5E7404B9A42A2D170
:105030000A6842F020020A60096801F0200101912B
:10504000016841F040010160006800F040000190FB
:105050004FF484400290CDF80CB0049505960820DA
:10506000069002A93248FDF775F82B48DFF8C4A076
:105070006038CAF800004FF0206BCAF804B0CAF8D4
:105080000850CAF80C50CAF81070CAF81450CAF880
:105090001850CAF81C504FF40030CAF82000CAF863
:1050A0002480CAF82860CAF82C50CAF830505046FC
:1050B000FCF78EFF08B1FCF7F2F9C4F83CA0CAF87F
:1050C000384015481B4E183060363060C6F804B0C2
:1050D0004020B060F56037617561B561F561C6F873
:1050E000209075623046FCF773FF08B1FCF7D7F9E2
:1050F000A663B463002205214720FDF7D5FC4720B5
:10510000FDF7C4FC37E700000010014044380240BE
:105110000004024000000240886402409009002020
:10512000004800400008024028600240001401408E
:1051300000180240B00A00207047704737B5044697
:1051400094F84100202801D002203EBD019959B3B6
:1051500052B32162A284E28400206064212384F897
:105160004130A56B114BEB63A56B114B2B64A56B09
:10517000104BEB64A36B186520681346001DA56BEC
:1051800002462846FCF78EFF21686FF04000086059
:105190002068143050E8001F41F0800140E8001200
:1051A000002AF5D100203EBD01203EBD89E900085E
:1051B00065E80008C3E5000870477047FEE7000097
:1051C00010B510480E490160032141600021816043
:1051D000C1604FF4C02202614FF4A0024261017627
:1051E000012242768276C17601774177FCF7ECFBAB
:1051F000002803D0BDE81040FCF751B910BD0000F5
:10520000006400404404002010B510480E490160BD
:105210000321416000218160C1604FF4802202615E
:105220004FF4E00242610176012242768276C17635
:1052300001774177FCF7C8FB002803D0BDE8104098
:10524000FCF72DB910BD0000006800406C04002080
:1052500008B52D48016841F400110160016801F4AE
:1052600000110091016841F480010160006800F4C0
:1052700080000090002211460C20FDF715FC0C2048
:10528000FDF704FC002211460D20FDF70DFC0D205A
:10529000FDF7FCFB002211460F20FDF705FC0F2057
:1052A000FDF7F4FB002205213920FDF7FDFB392035
:1052B000FDF7ECFB002205213A20FDF7F5FB3A2033
:1052C000FDF7E4FB002211463B20FDF7EDFB3B2000
:1052D000FDF7DCFB002211464420FDF7E5FB4420EE
:1052E000FDF7D4FB002205214520FDF7DDFB45201D
:1052F000FDF7CCFB002211464620FDF7D5FBBDE8AB
:1053000008404620FDF7C2BB303802402DE9F0418D
:1053100086B0142101A8FBF7B5FC5248016841F0A2
:1053200002010160016801F002010091016841F091
:1053300040010160016801F040010091016841F005
:1053400001010160016801F001010091016841F073
:1053500008010160016801F008010091016841F055
:1053600004010160016801F004010091016841F04D
:1053700080010160016801F080010091016841F045
:1053800020010160016801F020010091016841F0F5
:1053900010010160006800F010000090324E012200
:1053A00040213046FCF7C6FF304F0122102138461D
:1053B000FCF7C0FFDFF8B880012211464046FCF739
:1053C000B9FF40200190012402940394049401A9A0
:1053D0003046FCF7BFFE092001904FF404150295FA
:1053E000039401A93046FCF7B5FE10200190029409
:1053F00003940226049601A93846FCF7ABFE302040
:1054000001900295039401A91A48FCF7A3FE0194A8
:1054100002940394049601A94046FCF79BFE0022E7
:1054200002210620FDF740FB0620FDF72FFB00229E
:1054300001210920FDF738FB0920FDF727FB002299
:1054400001210A20FDF730FB0A20FDF71FFB002297
:1054500001211720FDF728FB1720FDF717FB06B0E9
:10546000BDE8F081303802400018024000000240E0
:10547000000402400008024010B50D480B490160CD
:105480000C49416000218160C1604FF4804202619B
:1054900041618161C1610162FCF75AFF002803D0BC
:1054A000BDE81040FBF7FBBF10BD0000005C0040F2
:1054B00094040020801A060010B510480E490160BF
:1054C0004FF48271416000218160C160022202615B
:1054D00001224261520282613822C261016241624C
:1054E00081620A21C162FEF7E2FA002803D0BDE81A
:1054F0001040FBF7D4BF10BD00300140A8050020CC
:1055000010B588B01C2101A8FBF7BCFB1448134957
:10551000016000244460846041F28731C16004610D
:105520008461FEF71DFE08B1FBF7B9FF0C48FFF7D9
:1055300004F908B1FBF7B3FF6020019002940394D3
:105540000594002201A90648FFF78BF808B1FBF784
:10555000A6FF0348FFF70EF808B010BD0044014055
:105560007008002010B596B000241294139414947F
:105570001594109411941C2109A8FBF783FB20219A
:1055800001A8FBF77FFB284826490160A72141605D
:10559000846041F28731C160046144618461FEF737
:1055A000DFFD08B1FBF77BFF4FF48050129012A98A
:1055B0001D48FEF7CDFE08B1FBF771FF1A48FFF753
:1055C000BCF808B1FBF76BFF1094119410A91648B2
:1055D000FEF77EFD08B1FBF762FF602009900A9498
:1055E0000B940C940D940E940F94082209A90E4864
:1055F000FFF737F808B1FBF752FF019402940394C8
:10560000049405944FF400500690089401A90648AC
:10561000FEF733FD08B1FBF742FF0348FEF7AAFF90
:1056200016B010BD00000140C006002010B58EB0BD
:1056300000240A940B940C940D94089409941C2152
:1056400001A8FBF71FFB1D484FF08041016044603B
:105650008460611EC16004618461FEF781FD08B150
:10566000FBF71DFF4FF480500A900AA91348FEF77C
:105670006FFE08B1FBF713FF1048FFF75EF808B1A3
:10568000FBF70DFF0894099408A90C48FEF720FDCC
:1056900008B1FBF704FF6020019002940394059485
:1056A000082201A90548FEF7DCFF08B1FBF7F7FE69
:1056B0000248FEF75FFF0EB010BD00000807002093
:1056C00010B586B0002402940394049405940094C9
:1056D000019414481249016053214160846040F2F2
:1056E000E731C16004618461FEF73AFD08B1FBF760
:1056F000D6FE4FF48050029002A90A48FEF728FE19
:1057000008B1FBF7CCFE0094019469460548FEF70A
:10571000DFFC002801D0FBF7C2FE06B010BD000080
:10572000000400405007002010B58EB000240A94F9
:105730000B940C940D94089409941C2101A8FBF778
:10574000A1FA1E481C49016053214160846040F267
:10575000E731C16004618461FEF702FD08B1FBF727
:105760009EFE4FF480500A900AA91448FEF7F0FDFF
:1057700008B1FBF794FE1148FEF7DFFF08B1FBF715
:105780008EFE0894099408A90C48FEF7A1FC08B104
:10579000FBF785FE60200190029403940594082293
:1057A00001A90648FEF75DFF08B1FBF778FE034844
:1057B000FEF7E0FE0EB010BD000800409807002084
:1057C00010B586B0002402940394049405940094C8
:1057D000019414481249016053214160846040F2F1
:1057E000E731C16004618461FEF7BAFC08B1FBF7E0
:1057F00056FE4FF48050029002A90A48FEF7A8FD19
:1058000008B1FBF74CFE0094019469460548FEF789
:105810005FFC002801D0FBF742FE06B010BD00007F
:10582000000C0040E00700201CB500240094019407
:105830000D480C49016053214160846040F2E7311A
:10584000C1608461FEF78CFC08B1FBF728FE009470
:10585000019469460448FEF73BFC002801D0FBF7A1
:105860001EFE1CBD001000402808002010B50C488A
:105870000A4901604FF4E131416000218160C1605B
:1058800001610C2242618161C161FFF7ABFA00281E
:1058900003D0BDE81040FBF702BE10BD0010014070
:1058A000B808002010B50E480C4901600D49416050
:1058B0004FF4805181600021C1604FF48062026129
:1058C000042242618161C161FFF78CFA002803D094
:1058D000BDE81040FBF7E3BD10BD000000480040EC
:1058E00000090020A086010010B50C480A4901609B
:1058F0004FF4E131416000218160C16001610C22FF
:1059000042618161C161FFF76DFA002803D0BDE8F3
:105910001040FBF7C4BD10BD001401404809002031
:1059200010B500220F49104800F0F0FC08B1FBF759
:10593000B6FD0E490C4800F03BFF08B1FBF7AFFD88
:105940000B49094800F050FB08B1FBF7A8FD0648D9
:1059500000F057FF002803D0BDE81040FBF79FBDC3
:1059600010BD00003403002028320020F403002082
:1059700084030020FEE7FEE70148FDF70ABA0000B5
:105980003049002070477047FDF724B8024801688D
:1059900041F470010160704788ED00E00148FEF7B6
:1059A0004CBD0000500700200148FEF746BD000036
:1059B000980700200148FEF740BD0000E0070020E6
:1059C0000148FEF73ABD0000280800202DE9F0410B
:1059D00002682A4D2A4E2B4FDFF8ACC02B4B4FF0FC
:1059E0008048A84209D0404507D0B04205D0B8420F
:1059F00003D0604501D0984203D122F070044A6878
:105A00002243A8421BD0404519D0B04217D0B8421B
:105A100015D0604513D0984211D01D4CA0420ED035
:105A20001C4CA0420BD01C4CA04208D01B4CA042E6
:105A300005D01B4CA04202D01A4CA04203D122F444
:105A40004074CA6822434C6922F0800222430260FB
:105A50008A68C2620A688262A84201D0984201D173
:105A600009690163012141610169C90703D0016925
:105A700021F001010161BDE8F0810000000001405A
:105A80000004004000080040000C004000040140F9
:105A9000004001400044014000480140001800401F
:105AA000001C00400020004010B501F01F01012340
:105AB0008B40046A9C430462036A8A401343036276
:105AC00010BD10B5846824F47F4442EA03220A43DF
:105AD0002243826010BD0000F0B5026A036A23F021
