:020000040800F2
:1000000078160020ED010008A140000831350008F5
:100010000140000875050008994F00080000000025
:10002000000000000000000000000000E1410008A6
:100030005106000800000000B5410008CF48000844
:10004000070200080702000807020008070200086C
:10005000070200080702000807020008070200085C
:10006000070200080702000807020008070200084C
:10007000070200080702000807020008070200083C
:10008000B905000815060008070200080702000865
:100090007905000889050008070200080702000822
:1000A0000702000855490008070200080702000877
:1000B00065490008754900080702000807020008A2
:1000C00007020008070200080702000807020008EC
:1000D00007020008070200080702000807020008DC
:1000E00007020008070200080702000800000000DD
:1000F0000000000000000000000000000000000000
:1001000000000000000000000702000807020008CD
:10011000070200080702000807020008070200089B
:10012000070200080702000807020008070200088B
:10013000070200080000000000000000070200089D
:1001400099050008A9050008070200080702000831
:1001500000F002F800F03AF80AA090E8000C82449F
:100160008344AAF10107DA4501D100F02FF8AFF27C
:10017000090EBAE80F0013F0010F18BFFB1A43F085
:10018000010318479C950000BC950000103A24BF5D
:1001900078C878C1FAD8520724BF30C830C144BFEC
:1001A00004680C607047000000230024002500262E
:1001B000103A28BF78C1FBD8520728BF30C148BFCA
:1001C0000B6070471FB51FBD10B510BD00F05AF988
:1001D0001146FFF7F7FF06F071F900F078F903B464
:1001E000FFF7F2FF03BC00F07BF9000009488047ED
:1001F00009480047FEE7FEE7FEE7FEE7FEE7FEE709
:10020000FEE7FEE7FEE7FEE704480549054A064B20
:100210007047000051490008510100087810002083
:1002200078160020781200207812002053EA020C81
:1002300000F069802DE9F04B4FF00006002B1FBF46
:10024000B3FA83F503FA05F424FA05F65E4012BF0B
:100250001643B2FA82F502FA05F4C5F120051EBF75
:1002600022FA05FC44EA0C04203556EA044C4FEA15
:10027000144418BF641C4FF000084FF0000990426E
:1002800071EB030C39D3002919BFB1FA81F701FAD8
:1002900007F6B0FA80F700FA07F6C7F120071EBF8D
:1002A00020FA07FC46EA0C062037B6FBF4FCA7EB65
:1002B0000507103F07F01F0BCBF120060CFA0BFBD4
:1002C0002CFA06F644BFB3460026202FA4BF5E4694
:1002D0004FF0000B5BEA060C08BF4FF0010B19EB67
:1002E0000B09ABFB027C48EB0608C01B06FB02CCEB
:1002F0000BFB03CC71EB0C01C1E70B4602464146F8
:100300004846BDE8F08B13B54FF000004FF00001F8
:10031000AFF30080BDE81C407047032A40F23080F4
:1003200010F0030C00F0158011F8013BBCF1020F36
:10033000624498BF11F801CB00F8013B38BF11F8B7
:10034000013BA2F1040298BF00F801CB38BF00F8CE
:10035000013B11F0030300F02580083AC0F008804B
:1003600051F8043B083A51F804CBA0E80810F5E72F
:10037000121D5CBF51F8043B40F8043BAFF3008012
:10038000D20724BF11F8013B11F801CB48BF11F887
:10039000012B24BF00F8013B00F801CB48BF00F857
:1003A000012B704710B5203AC0F00B80B1E818500F
:1003B000203AA0E81850B1E81850A0E81850BFF44F
:1003C000F5AF5FEA027C24BFB1E81850A0E81850EE
:1003D00044BF18C918C0BDE810405FEA827C24BF42
:1003E00051F8043B40F8043B08BF7047D20728BFD0
:1003F00031F8023B48BF11F8012B28BF20F8023B1F
:1004000048BF00F8012B70474FF0000200B51346BB
:1004100094469646203922BFA0E80C50A0E80C5024
:10042000B1F12001BFF4F7AF090728BFA0E80C50D5
:1004300048BF0CC05DF804EB890028BF40F8042BCE
:1004400008BF704748BF20F8022B11F0804F18BF3B
:1004500000F8012B704770477047704710B500F0E7
:1004600009F8006810BD10B5044600F003F80460F8
:1004700010BD000000487047181000200048704769
:10048000181000207546FFF7F9FFAE4605006946D3
:10049000534620F00700854618B020B5FFF7B4FE9C
:1004A000BDE820404FF000064FF000074FF0000875
:1004B0004FF0000B21F00701AC46ACE8C009ACE8F6
:1004C000C009ACE8C009ACE8C0098D46704710B55A
:1004D0000446AFF300802046BDE81040FFF77FBE22
:1004E00001491820ABBEFEE726000200704700005D
:1004F00010B51E4840681D498968884203D1022111
:100500001B4805F0CDFC1948D0F8FC10D0F80001CC
:10051000814203D10221164805F0C2FC1348D0F8ED
:100520006412D0F86802814203D10221104805F01C
:10053000B7FC0E48D0F87811D0F87C01814203D185
:1005400002210B4805F0ACFC084840680749886068
:100550000846D0F8FC10C0F80011D0F86412C0F8BA
:100560006812D0F87811C0F87C1110BDDC020020B0
:100570003C0F002000BFFEE710B5024800F062FD0E
:1005800010BD00008800002010B5024800F05AFDA0
:1005900010BD00008800002010B5024800F052FD98
:1005A00010BD0000B000002010B5024800F04AFD68
:1005B00010BD0000B000002010B5104801F00AF98D
:1005C00001281AD00E4802F099FE0C4800680D4927
:1005D000884204D94FF400100B49086004E04FF43E
:1005E00000100849803948600021084802F0CAFF1D
:1005F0005A220749024802F083FF10BD540200202E
:100600000C0200208000024004040240E80F002099
:10061000B001002010B5024801F0E0F810BD000064
:100620009802002030B590F840500124AC40C56BD2
:100630006C60046863604468102C04D10468A26094
:100640000468E16003E00468A1600468E26030BD12
:10065000704772B600BFFEE72DE9F04781460C46B1
:100660004FF0000A31200AE0411E54F8211044F8EE
:100670002010411E54F821108A44411EC8B200289F
:10068000F2DCC4F80090CA44504607F068FD074603
:100690000022044B07F0A0FB054607F031FDBDE842
:1006A000F0870000000049400FB59BB0DDE91B104A
:1006B00008601B991D9848601B991E9808731B9928
:1006C000209808611B99219848611B99229888619C
:1006D0001B9923988860002019901B9880690F90BF
:1006E00008F0B4F8CDE912011B9800690D9008F0EC
:1006F000ADF8FE4AFE4BCDE90E0107F097FDCDE9BE
:100700001001DDE9122307F067FBCDE9140107F0C2
:1007100075FA18901B9880690F9008F097F8CDE94A
:1007200012011B9840690D9008F090F8EF4AF04BC9
:10073000CDE90E0107F07AFDCDE91001DDE91223C4
:1007400007F04AFBCDE9140107F058FA17901B98FF
:10075000007B30B1012848D002287CD0032843D147
:100760002FE10020169039E01B988068099008F06E
:1007700039FA4FF080410A9008F002F90C9016986F
:1007800008F030FA0B900C9908F01CFC0D901899A9
:1007900008F088FA0E9003F0FDFB0F9008F056F871
:1007A000CDE91201189808F051F8D04AD14BCDE9A3
:1007B0000E0107F011FBCDE91001DDE9122307F06E
:1007C00035FDCDE9140107F019FA01461B981C30DC
:1007D000169A40F822101698401C16901B988168B3
:1007E000491C16988142BFDC99E10020169068E010
:1007F0001B988068059008F0F5F94FF0804106904D
:1008000008F0BEF80890169808F0ECF907900899DF
:1008100008F0D8FB0990179908F044FA0A9003F001
:10082000B9FB0B9008F012F8CDE90E01179808F00B
:100830000DF8AE4AAF4BCDE90A0107F0CDFACDE98C
:100840000C01DDE90E2307F0F1FCCDE912011B9844
:100850008068059000E03BE008F0C4F94FF080416B
:10086000069008F08DF80890169808F0BBF90790EC
:10087000089908F0A7FB099007F0E8FF9B4A9D4BF9
:10088000CDE90A0107F0D2FCCDE90C0107F0B6F979
:100890000E9003F07FFB0F9007F0D8FFCDE9100119
:1008A000DDE9122307F0E8FECDE9140107F0A6F90F
:1008B00001461B981C30169A40F822101698401CCE
:1008C00016901B988068401C1699884290DC26E19F
:1008D000002016906EE01B988068059008F082F961
:1008E0004FF08041069008F04BF80890169808F0F9
:1008F00079F90790089908F065FB0990189908F0B4
:10090000D1F90A9003F046FB0B9007F09FFFCDE969
:100910000E01189807F09AFF744A764BCDE90A0148
:1009200007F05AFACDE90C01DDE90E2307F07EFC51
:10093000CDE912011B988068059008F053F94FF03B
:100940008041069008F01CF80890169808F04AF9C3
:100950000790089908F036FB0990179908F0A2F95A
:100960000A9003F017FB0B9007F070FFCDE90E0122
:10097000179807F06BFF5D4A5E4BCDE90A0107F05F
:100980002BFACDE90C01DDE90E2307F04FFCCDE990
:100990001001DDE9122307F06FFECDE9140107F025
:1009A0002DF901461B981C30169A40F82210169813
:1009B000401C16901B988068401C169988428ADC5F
:1009C000ADE000201690A2E01B988068059008F02A
:1009D00009F94FF08041069007F0D2FF0890169871
:1009E00008F000F90790089908F0ECFA09901799B7
:1009F00008F058F90A9003F0CDFA0B9007F026FFA3
:100A0000CDE90E01179807F021FF384A394BCDE99F
:100A10000A0107F0E1F9CDE90C01DDE90E2307F049
:100A200005FCCDE912011B988068019008F0DAF806
:100A30004FF08041029007F0A3FF0490169808F051
:100A4000D1F80390049908F0BDFA0590189908F0C0
:100A500029F9069003F09EFA079007F0F7FECDE91A
:100A60000A01189807F0F2FE204A224BCDE9060150
:100A700007F0B2F9CDE90801DDE90A2307F0D6FB5A
:100A8000CDE90E011B988068019008F0ABF84FF09B
:100A90008041029007F074FF0490169808F0A2F8C5
:100AA0000390049908F08EFA059007F0CFFE0F4AE4
:100AB000104BCDE9060107F0B9FBCDE9080107F0BD
:100AC0009DF80A9003F066FA0B9007F0BFFECDE99F
:100AD0000C01DDE90E2307F0C3F8CDE91001DDE9D3
:100AE000122307F0C9FDCDE9140105E01F85EB5184
:100AF000B81E1940B81E094007F080F801461B983F
:100B00001C30169A40F822101698401C16901B981C
:100B10008068401C169988423FF756AF00BF00BF5F
:100B2000002016900DE01B981C30169950F82100FB
:100B300001461590199807F0B5FE19901698401CBB
:100B400016901B988068401C16998842EBDC0020A8
:100B5000169011E01B981C30169950F82100159042
:100B6000199907F00DFF01461B981C30169A40F8A2
:100B700022101698401C16901B988068401C1699ED
:100B80008842E7DC1FB000BD30B5034613B94FF60D
:100B9000FF7030BD09E013F8014B82EA0400C0B2D7
:100BA000054D35F8100080EA2222081EA1F101014E
:100BB000F1D11046EDE70000D692000830B50346AB
:100BC00005E013F8010B80EA02040448025D081EE8
:100BD000A1F10101F5D1104630BD0000D59100080A
:100BE00010B5024692F82030012B01D0022B06D11D
:100BF00010684069084314686061002010BD506AA5
:100C000040F4802050620120F8E7F0B504460D461C
:100C10001E4694F8207020688368A86800B900E038
:100C200000BF012F01D0022F7DD103F0806030B9C9
:100C300003F0006018B903F0805000287ED0C3F3A1
:100C40000161012088403060A86860B9B5F800C033
:100C5000E86840EA4C5C206800F5C07000EB0110C9
:100C6000C0F800C00FE0D5E901C040EACC00D5F8DB
:100C70000CC040EA0C00D4F800C00CF5C07C0CEBB2
:100C8000011CCCF80000D5F810C0206800F5C07039
:100C900000EB0110C0F804C0287D01280ED12068A7
:100CA00000F5C07000EB0110406840F4807C2068C3
:100CB00000F5C07000EB0110C0F804C0D079000648
:100CC00092F806C040EA0C4092F805C040EA0C20B9
:100CD00092F804C040EA0C00D4F800C00CF5C07CC7
:100CE0000CEB011CCCF80C00D078000692F802C086
:100CF00040EA0C4092F801C040EA0C2092F800C093
:100D000040EA0C00D4F800C00CF5C07C0CEB011CD0
:100D1000CCF80800206800F5C07000EB01100068F6
:100D200040F0010C01E00FE008E0206800F5C07021
:100D300000EB0110C0F800C00020F0BD606A40F474
:100D4000001060620120F8E7606A40F48020606271
:100D50000120F2E7F0B504460A46216894F82050D5
:100D6000012D01D0022D7ED1424901F500710868A4
:100D700040F001000860086820F47C5008600868B2
:100D8000566A40EA06200860107D00F01F06012028
:100D900000FA06F3C8699843C861A1F50071D069EB
:100DA000C8B9D1F80C029843C1F80C02908880B2FF
:100DB000968940EA064601F51070576940F8376099
:100DC000108880B2168940EA064601F5107057690E
:100DD00000EBC7004660D069012819D1D1F80C0298
:100DE0001843C1F80C02908880B2168840EA064683
:100DF00001F51070576940F83760908980B2168904
:100E000040EA064601F51070576900EBC7004660DE
:100E1000906928B9D1F804029843C1F8040204E0AB
:100E2000D1F804021843C1F80402106928B9D1F8B6
:100E300014029843C1F8140204E0D1F814021843D4
:100E4000C1F81402106A012804D1D1F81C02184319
:100E5000C1F81C02D1F8000220F00100C1F8000224
:100E60000020F0BDFFE7606A40F48020606201204E
:100E7000F7E7000000640040704770B5044694F83E
:100E80002050012D01D0022D7DD151B92068C068BC
:100E900000F0030080B9606A40F400106062012035
:100EA00070BD2068006900F0030028B9606A40F452
:100EB000001060620120F3E7206800F5D87000EBB5
:100EC0000110006800F004009060906840B920684C
:100ED00000F5D87000EB01100068400D106007E0CD
:100EE000206800F5D87000EB01100068C008506061
:100EF000206800F5D87000EB0110006800F00200D7
:100F0000D060206800F5D87000EB0110406800F058
:100F10000F00082802D30820106108E0206800F5BF
:100F2000D87000EB0110406800F00F0010612068DD
:100F300000F5D87000EB0110406800F47F40000A13
:100F40009061206800F5D87000EB01104068000C3B
:100F50005061206800F5D87000EB011080681870AF
:100F6000206800F5D87000EB0110806800F47F4025
:100F7000000A5870206800F5D87000EB01108068F6
:100F800000F47F0000E03CE0000C9870206800F561
:100F9000D87000EB01108068000ED870206800F552
:100FA000D87000EB0110C0681871206800F5D87087
:100FB00000EB0110C06800F47F40000A58712068FF
:100FC00000F5D87000EB0110C06800F47F00000C41
:100FD0009871206800F5D87000EB0110C068000E11
:100FE000D87131B92068C06840F020002668F060F0
:100FF00005E02068006940F020002668306100208C
:101000004EE7606A40F480206062012048E70146B4
:10101000002091F82020012A01D0022A11D10B686A
:101020009B6803F0806303B1401C0B689B6803F06E
:10103000006303B1401C0B689B6803F0805303B14D
:10104000401C70472DE9F05F044600252068466982
:101050002068D0F80490206887682068D0F80CA039
:101060002068D0F810B02068D0F8188006F0010091
:10107000002855D007F00100C0B101202168886028
:1010800007F0020018B1204600F073FB0EE007F0F5
:10109000040010B145F4006508E007F0080010B145
:1010A00045F4805502E0204600F062FB07F48070B2
:1010B000C8B14FF480702168886007F4007018B1DF
:1010C000204600F058FB0EE007F4806010B145F4B4
:1010D000005508E007F4006010B145F4804502E0D7
:1010E000204600F047FB07F48030C8B14FF4803051
:1010F0002168886007F4003018B1204600F03DFBFD
:101100000EE007F4802010B145F4004508E007F434
:10111000002010B145F4803502E0204600F02CFBA1
:1011200006F0080038B10AF0100020B145F400754F
:1011300010202168C86006F0040040B10AF00800E1
:1011400028B108202168C860204600F027FA06F080
:10115000020038B12068C06800F0030010B12046DA
:1011600000F01EFA06F0400038B10BF0100020B17C
:1011700045F4806510202168086106F0200040B128
:101180000BF0080028B1082021680861204600F013
:101190007FFA06F0100038B12068006900F0030003
:1011A00010B1204600F076FA06F4003040B109F0A4
:1011B000100028B1102021684860204600F0A8FAED
:1011C00006F4803040B109F0080028B108202168F9
:1011D0004860204600F0D2FA06F4004088B309F0D7
:1011E000040078B306F4807020B108F0010008B163
:1011F00045F0010506F4007020B108F0020008B1C6
:1012000045F0020506F4806020B108F0040008B142
:1012100045F0040506F40060A0B108F0700088B144
:1012200008F07000402817D006DC10280BD02028CA
:101230000CD0302819D10CE0502810D0602814D1DF
:1012400010E01DE019E045F008050FE045F010053D
:101250000CE045F0200509E045F0400506E045F0CA
:10126000800503E045F4807500E000BF00BF206802
:10127000806920F07000216888610420216848603E
:101280002DB1606A284360622046FFF7F5FDBDE896
:10129000F09F70B504460CB9012070BD94F8200091
:1012A00010B9204600F0B0F82068006840F0010056
:1012B0002168086000F088FE05460DE000F084FE1D
:1012C000401B0A2808D9606A40F40030606205209B
:1012D00084F820000120E0E72068406800F0010069
:1012E0000028EBD02068006820F002002168086028
:1012F00000F06AFE05460DE000F066FE401B0A287D
:1013000008D9606A40F400306062052084F820004B
:101310000120C2E72068406800F002000028EBD1FD
:10132000207E012806D12068006840F080002168F6
:10133000086005E02068006820F0800021680860EF
:10134000607E012806D12068006840F040002168D6
:10135000086005E02068006820F04000216808600F
:10136000A07E012806D12068006840F02000216896
:10137000086005E02068006820F02000216808600F
:10138000E07E012806D12068006820F01000216866
:10139000086005E02068006840F0100021680860DF
:1013A000207F012806D12068006840F008002168ED
:1013B000086005E02068006820F0080021680860E7
:1013C000607F012806D12068006840F00400216891
:1013D000086005E02068006820F0040021680860CB
:1013E000D4E902010843216908436169084361683F
:1013F000491E08432168C86100206062012084F80A
:101400002000002049E7000010B586B00446002007
:1014100002900390049005905A492068884254D164
:1014200059480068401C584908600846006801286F
:101430000DD100BF5548C06940F000705349C861E4
:101440000846C06900F00070019000BF00BF00BFF7
:101450004E48806940F008004C4988610846806920
:1014600000F00800019000BF00BF88150290002026
:101470000390049002A9464800F010FC4FF400705D
:101480000290022003900320059002A9404800F03A
:1014900005FC00BF3F49486820F4C04040F0E060D0
:1014A00040F48040486000BF00221146142000F044
:1014B00011FE142000F0FEFD00221146152000F060
:1014C00009FE152000F0F6FD5AE0334920688842F5
:1014D00056D100BF2D48C06940F080602B49C861DB
:1014E0000846C06900F08060019000BF00BF264838
:1014F0000068401C244908600846006801280DD196
:1015000000BF2248C06940F000702049C861084609
:10151000C06900F00070019000BF00BF00BF1B4811
:10152000806940F00800194988610846806900F028
:101530000800019000BF00BF8814029000200390B3
:10154000049002A9124800F0A9FB4FF40050029049
:10155000022003900320059002A90D4800F09EFB95
:1015600000221146402000F0B5FD402000F0A2FD11
:1015700000221146412000F0ADFD412000F09AFD0F
:1015800006B010BD006400400000002000100240C2
:10159000000C01400000014000680040704700005E
:1015A00010B58AB00446324884421FD101AB03AA69
:1015B0000021FFF762FC039881B201AA2D4802F0D6
:1015C00053F92D4802F061FA2C4802F05EFA2A48DD
:1015D000B0380399D0F85001814204D101A92648BE
:1015E000A03004F069FA01202549086025488442AA
:1015F0003BD101AB03AA0021FFF73FFC1E49B039E4
:10160000097B0398884204D101A91B48B03806F031
:10161000B5FA03982B280FD004DC1E281ED02A28E8
:1016200021D104E02C280DD02D281CD110E001A9D7
:10163000154806F0DDFA17E001A91348283006F036
:10164000D7FA11E001A91048503006F0D1FA0BE0AA
:1016500001A90D48783006F0CBFA05E001A90B4846
:1016600004F01EFF00BF00BF00BF0AB010BD0000A5
:1016700088000020500500208C030020F404002086
:1016800024000020B00000209C0E00207C0E0020D2
:101690007047000010B58AB00446184884421CD137
:1016A00001AB03AA0121FFF7E8FB039881B201AA6D
:1016B000134802F0D9F8134802F0E7F9124802F093
:1016C000E4F91048B0380399D0F85001814204D1B0
:1016D00001A90C48A03004F0EFF90C4884420BD16A
:1016E00001AB03AA0121FFF7C8FB0598042803D129
:1016F00001A9049806F0C6F80AB010BD88000020C1
:10170000500500208C030020F4040020B0000020CD
:10171000704770B5044694F82000012822D10220B9
:1017200084F820002068006820F00100216808602B
:1017300000F04AFC05460DE000F046FC401B0A287C
:1017400008D9606A40F400306062052084F8200007
:10175000012070BD2068406800F001000028EBD136
:101760006062F6E7606A40F4002060620120F0E702
:101770007047704770477047704770477047014621
:10178000002291F82100022808D00420886300BFBD
:10179000002081F8200000BF012070470868006821
:1017A00020F00E000B6818600868006820F0010047
:1017B0000B68186091F8403001209840CB6B58605E
:1017C000012081F8210000BF002081F8200000BF27
:1017D0001046E2E7014691F82100704770B50446D3
:1017E000E06B05682068066894F840100420884083
:1017F0002840002875D006F004000028FAD02068A0
:10180000006800F0200028B92068006820F004007B
:1018100021680860D5492068884254D9D34978396D
:101820002068884201D1042049E0D0496439206809
:10183000884201D1402042E0CC495039206888429A
:1018400001D100153BE0C9493C392068884202D1EA
:101850004FF4804033E0C54928392068884202D1DE
:101860004FF480202BE0C14914392068884202D10E
:101870004FF4800023E0BD492068884201D1C004B4
:101880001DE0BB492068884201D1042017E0B84917
:1018900014312068884201D1402010E0B449283139
:1018A0002068884201D1001509E0B1493C31206827
:1018B000884202D14FF4804001E04FF48020AC49CF
:1018C000091F086054E0A94978392068884201D18D
:1018D00004204AE0A54964392068884202D14020AA
:1018E00043E04CE0A14950392068884201D10015FD
:1018F0003BE09E493C392068884202D14FF4804049
:1019000033E09A4928392068884202D14FF4802078
:101910002BE0964914392068884202D14FF48000A8
:1019200023E092492068884201D1C0041DE090491B
:101930002068884201D1042017E08D4914312068C5
:10194000884201D1402010E089492831206888422E
:1019500001D1001509E086493C312068884202D156
:101960004FF4804001E04FF4802080498039486086
:10197000E06A002802D02046E16A8847F4E094F843
:101980004010022088402840002871D006F0020054
:101990000028FAD02068006800F0200040B92068D4
:1019A000006820F00A0021680860012084F8210006
:1019B0006E492068884254D96C4978392068884239
:1019C00001D1022049E0694964392068884201D187
:1019D000202042E0654950392068884201D14015F5
:1019E0003BE062493C392068884202D14FF4005004
:1019F00033E05E4928392068884202D14FF4003034
:101A00002BE05A4914392068884202D14FF4001063
:101A100023E056492068884201D180041DE05449E2
:101A20002068884201D1022017E051491431206812
:101A3000884201D1202010E04D4928312068884299
:101A400001D1401509E04A493C312068884202D161
:101A50004FF4005001E04FF400304549091F086081
:101A600054E0424978392068884202D102204AE095
:101A700057E03E4964392068884201D1202042E085
:101A80003A4950392068884201D140153BE0374936
:101A90003C392068884202D14FF4005033E033498A
:101AA00028392068884202D14FF400302BE02F49BA
:101AB00014392068884202D14FF4001023E02B49EA
:101AC0002068884201D180041DE0294920688842AD
:101AD00001D1022017E0264914312068884201D143
:101AE000202010E0224928312068884201D1401589
:101AF00009E01F493C312068884202D14FF4005070
:101B000001E04FF4003019498039486000BF0020DF
:101B100084F8200000BFA06A30B32046A16A88473D
:101B200022E094F84010082088402840E0B106F0F8
:101B30000800C8B12068006820F00E002168086025
:101B400094F8401001208840E16B48600120A063B8
:101B500084F8210000BF002084F8200000BF206B23
:101B600010B12046216B884770BD00008000024004
:101B7000080402400146002209B9012070471E4BAB
:101B8000086898420BD21D4B0868C01A1423B0FB9A
:101B9000F3F08000086419480838C8630AE0164B5F
:101BA0000868C01A1423B0FBF3F0800008641248E0
:101BB0000838C863022081F821000868026843F6EB
:101BC000F0708243D1E901031843CB6818430B69D5
:101BD00018434B6918438B691843CB691843024378
:101BE0000868026000208863012081F8210000203D
:101BF00081F8200000BFC1E708040240080002404D
:101C00002DE9F04104460D4616461F464FF00008E8
:101C100000BF94F82000012802D10220BDE8F08125
:101C2000012084F8200000BF94F8210001282CD165
:101C3000022084F821000020A0632068006820F0C2
:101C40000100216808603B46324629462046FEF7DF
:101C5000E9FCE06A30B12068006840F00E002168BD
:101C600008600BE02068006820F00400216808602C
:101C70002068006840F00A00216808602068006859
:101C800040F001002168086006E000BF002084F8F1
:101C9000200000BF4FF002084046BFE72DE9F8479B
:101CA0000346002294466EE14FF0010808FA02F460
:101CB000D1F8008008EA0400A0427DD1DFF8DCA260
:101CC000D1F80480A8EB0A09D0453AD014DCB8F169
:101CD000030F50D009DCB8F1000F31D0B8F1010F7B
:101CE0001CD0B8F1020F49D120E0B8F1110F18D083
:101CF000B8F1120F42D11EE0B9F5881F25D006DCDD
:101D0000B9F5803F20D0B9F5801F37D11AE0B9F579
:101D1000001F18D0B9F5041F30D117E0D1F80CC05E
:101D20002DE0D1F80C8008F1040C28E0D1F80C80EB
:101D300008F1080C23E0D1F80C8008F10C0C1EE02F
:101D400000BF00BF00BF00BF00BF00BFD1F80880C8
:101D5000B8F1000F02D14FF0040C0BE0D1F808806D
:101D6000B8F1010F03D14FF0080C1C6102E04FF0F5
:101D7000080C5C6103E04FF0000C00E000BF00BF06
:101D8000FF2801D8984601E003F104084646FF28E1
:101D900002D84FEA820803E0A2F108084FEA880857
:101DA0004746D6F800804FF00F0909FA07F928EAEC
:101DB00009080CFA07F900E088E048EA0908C6F8C3
:101DC0000080D1F8048008F08058B8F1805F7DD1A0
:101DD00000BFDFF8CC81D8F8188048F00108DFF8A0
:101DE000C091C9F81880C846D8F8188008F00108D2
:101DF000CDF8008000BF00BF4FEAB9384FEA920922
:101E000058F829504FEA82784FEA18794FF00F08B6
:101E100008FA09F825EA0805DFF88881434502D168
:101E20004FF0000816E0DFF88081434502D14FF003
:101E300001080FE0DFF87481434502D14FF002083A
:101E400008E0DFF86C81434502D14FF0030801E060
:101E50004FF004084FEA82794FEA197908FA09F835
:101E600048EA0505DFF84C814FEA920948F8295005
:101E7000D1F8048008F48018B8F5801F0AD1DFF883
:101E80003881D8F8008048EA0008DFF82C91C9F8BA
:101E9000008009E0DFF82081D8F8008028EA0008F7
:101EA000DFF81491C9F80080D1F8048008F4001814
:101EB000B8F5001F10D1DFF8008108F10408D8F848
:101EC000008048EA0008DFF8F09000E05AE009F1ED
:101ED0000409C9F800800DE0DFF8DC8008F104088F
:101EE000D8F8008028EA0008DFF8CC9009F104094E
:101EF000C9F80080D1F8048008F40038B8F5003F34
:101F00000ED1DFF8B480A8F10408D8F8008048EAC0
:101F10000008DFF8A490A9F10409C9F800800DE0D9
:101F2000DFF89480A8F10408D8F8008028EA0008B7
:101F3000DFF88490A9F10409C9F80080D1F8048081
:101F400008F48038B8F5803F0ED1DFF86C80A8F136
:101F50000808D8F8008048EA0008DFF85C90A9F18A
:101F60000809C9F800800DE0DFF84C80A8F10808E6
:101F7000D8F8008028EA0008DFF83C90A9F10809A9
:101F8000C9F80080521CD1F8008028FA02F8B8F194
:101F9000000F7FF489AEBDE8F88700000000111043
:101FA0000010024000080140000C014000100140F8
:101FB0000014014008000140080401400AB1016119
:101FC00001E00B040361704701480068704700009E
:101FD00004000020034800680349097808440149C7
:101FE00008607047040000200C00002010B508486D
:101FF000006840F0100006490860032000F0A8F8CF
:102000000F2000F007F800F02BF8002010BD0000B2
:102010000020024070B504460E4800784FF47A71F3
:10202000B1FBF0F00C490968B1FBF0F5284600F06F
:10203000B9FC08B1012070BD102C07D20022214646
:10204000501E00F047F80548046001E00120F2E767
:102050000020F0E70C000020100000200800002005
:1020600008B500BF1148806940F001000F49886140
:102070000846806900F00100009000BF00BF00BF6B
:102080000846C06940F08050C8610846C06900F049
:102090008050009000BF00BF00BF0549486820F095
:1020A000E06040F00070486000BF08BD00100240D2
:1020B0000000014001460846002809DB00F01F032C
:1020C00001229A4043099B0003F1E023C3F8002159
:1020D00000BF70472DE9F05F80460D461646002789
:1020E00002F0A8FF074639462A46334601F00700AA
:1020F000C0F1070ABAF1040F02D94FF0040A01E057
:10210000C0F1070AD14600F1040ABAF1070F02D262
:102110004FF0000A01E0A0F1030AD4464FF0010A93
:102120000AFA09FAAAF1010A0AEA020A0AFA0CFAF8
:102130004FF0010B0BFA0CFBABF1010B0BEA030B9D
:102140004AEA0B042146404602F07CFFBDE8F09FBE
:1021500000BF00F00702064B19684FF6FF03194055
:10216000044B0B4343EA0221014B196000BF704747
:102170000CED00E00000FA0570B504460D460CB900
:10218000012070BD5A48006800F00700A8420ED236
:102190005748006820F00700284355490860084662
:1021A000006800F00700A84201D00120E9E720788C
:1021B00000F0020002281DD1207800F0040004285D
:1021C00005D14C48406840F4E0604A4948602078B6
:1021D00000F00800082805D14648406840F46050E7
:1021E000444948604348406820F0F000A168084333
:1021F00040494860207800F0010078B36068012809
:1022000006D13C48006800F4003090B90120B8E7DE
:102210006068022806D13748006800F0007040B9B5
:102220000120AEE73348006800F0020008B9012041
:10223000A7E73048406820F00300616808432D4953
:102240004860FFF7C1FE064609E0FFF7BDFE801BB0
:1022500041F28831884202D9032092E707E02548FD
:10226000406800F00C006168B0EB810FEDD12048B0
:10227000006800F00700A8420ED91D48006820F051
:10228000070028431A4908600846006800F0070064
:10229000A84201D0012074E7207800F0040004284F
:1022A00007D11448406820F4E060E1680843114910
:1022B0004860207800F00800082808D10D484068E0
:1022C00020F46050216940EAC1000A49486000F0EA
:1022D0003FF808494968C1F30311074A515CC840F7
:1022E0000649086006480068FFF794FE002048E7AA
:1022F0000020024000100240BC91000810000020A5
:10230000080000200148006870470000100000200D
:1023100000B5FFF7F7FF04494968C1F30221034AFA
:10232000515CC84000BD000000100240CC91000884
:1023300000B5FFF7E7FF04494968C1F3C221034A2A
:10234000515CC84000BD000000100240CC91000864
:102350002DE9FE4F4FF00009CB46CA46002400206D
:102360000290019000902F48D0F8049009F00C00E2
:1023700000284FD0042802D008284AD102E02A4879
:1023800002904AE02948C9F38341445C09F4803053
:10239000C0B32448C06A00F00F00254911F800B00E
:1023A0002048C06A00F4803008B31E48C06AC0F3F9
:1023B0000310401C01901B48C06AC0F30320801C1E
:1023C00000900198A0FB0B50064617490098A1FB0E
:1023D00000120023A1FB047C02FB04C201FB0321C9
:1023E0002A4633463846FDF721FF824603E00E4871
:1023F0006043B0FBFBFA0D48407BA04206D14FEA98
:102400005A0A03E0FFE70B4804FB00FACDF808A0E6
:1024100003E000BF0448029000BF00BF0298BDE87F
:10242000FE8F00000010024000127A009E9100080A
:10243000AC91000800093D00F8B504460CB9012034
:10244000F8BD207800F00100002878D0FD484068F1
:1024500000F00C0004280CD0FA48406800F00C0092
:10246000082811D1F748406800F48030B0F5803F6B
:102470000AD1F448006800F4003000285FD0A0685A
:1024800000285CD10120DBE700BFA068B0F5803FE9
:1024900006D1EC48006840F48030EA49086028E042
:1024A000A06858B9E748006820F48030E549086022
:1024B0000846006820F4802008601AE0A068B0F5A3
:1024C000A02F0BD1DF48006840F48020DD49086070
:1024D0000846006840F4803008600AE0D948006887
:1024E00020F48030D74908600846006820F4802036
:1024F000086000BFA06888B1FFF766FD054606E0EA
:10250000FFF762FD401B642801D9032098E7CD48FE
:10251000006800F400300028F2D010E0FFF754FD0E
:10252000054606E0FFF750FD401B642801D9032053
:1025300086E7C448006800F400300028F2D1207813
:1025400000F00200022857D1BE48406800F00C009D
:1025500050B1BC48406800F00C00082818D1B948B8
:10256000406800F4803098B9B648006800F0020076
:1025700020B16069012801D0012061E7B1480068FD
:1025800020F0F800A16940EAC100AE49086033E0DC
:102590006069E8B10120AC490860FFF715FD054608
:1025A00006E0FFF711FD401B022801D9032047E791
:1025B000A448006800F002000028F2D0A14800689A
:1025C00020F0F800A16940EAC1009E49086013E0CC
:1025D00000209D490860FFF7F7FC054606E0FFF77D
:1025E000F3FC401B022801D9032029E79548006825
:1025F00000F002000028F2D1207800F0080008283E
:102600002DD1E069B8B1012090490860FFF7DCFCEA
:10261000054606E0FFF7D8FC401B022801D903203D
:102620000EE78848406A00F002000028F2D001203E
:1026300001F0C2FD13E0002084490860FFF7C4FCEC
:10264000054606E0FFF7C0FC401B022801D9032025
:10265000F6E67C48406A00F002000028F2D12078BB
:1026600000F00400042873D100277648C06900F008
:10267000805070B900BF7348C06940F08050714904
:10268000C8610846C06900F08050009000BF00BFDC
:1026900001276F48006800F48070B0B96C4800688A
:1026A00040F480706A490860FFF78EFC054606E03A
:1026B000FFF78AFC401B642801D90320C0E6644868
:1026C000006800F480700028F2D000BF2069012863
:1026D00006D15C48006A40F001005A49086227E0D0
:1026E000206958B95748006A20F00100554908622E
:1026F0000846006A20F00400086219E020690528F5
:102700000BD15048006A40F004004E490862084668
:10271000006A40F0010008620AE04A48006A20F0BE
:102720000100484908620846006A20F00400086277
:1027300000BF2069A0B1FFF747FC054609E0FFF79D
:1027400043FC401B41F28831884202D9032077E6DE
:1027500022E03C48006A00F002000028EFD012E0BE
:10276000FFF732FC054608E0FFF72EFC401B41F264
:102770008831884201D9032062E63248006A00F0BD
:1027800002000028F0D1012F05D12E48C06920F0A9
:1027900080502C49C86100BFE06AA0B32948406856
:1027A00000F48030B0F5803F0ED12648406800F03C
:1027B0000C00082808D12348C06A00F48030B0F526
:1027C000803F01D101203BE6E06A022850D11D483C
:1027D000006800F0805040B11A48C06A00F0F00173
:1027E000606B814201D001202AE6002016498866EC
:1027F000FFF7EAFB054607E0FFF7E6FB401B64280E
:1028000002D903201CE64DE00E48006800F000608D
:102810000028F1D10B48C06A20F0F000616B08433A
:102820000849C8620846C06A20F47060216B0843FA
:102830000449C862012004498866FFF7C5FB0546C4
:102840000FE00000001002400000424280044242BB
:1028500000700040FFF7B8FB401B642801D903203B
:10286000EEE54E48006800F000600028F2D019E064
:102870004A48C06A20F480304849C862002048496C
:102880008866FFF7A1FB054606E0FFF79DFB401BAE
:10289000642801D90320D3E54048006800F00060B7
:1028A0000028F2D1206AE0B33C48406800F00C00F8
:1028B00008285ED0206A022846D1002038490866E0
:1028C000FFF782FB054606E0FFF77EFB401B022870
:1028D00001D90320B4E53148006800F000700028F9
:1028E000F2D1606AB0F5803F0DD12C48C06A6168B2
:1028F00008432A49C8620846C06A20F00F00E16810
:1029000008432649C862D4E90901084323494968B4
:1029100021F47411084321494860012020490866C8
:1029200000E038E0FFF750FB054606E0FFF74CFB00
:10293000401B022801D9032082E51848006800F0F6
:1029400000700028F2D026E0002015490866FFF745
:102950003BFB054606E0FFF737FB401B022801D989
:1029600003206DE50D48006800F000700028F2D1EA
:1029700011E0206A012800D162E50848466806F4A3
:102980008031606A814204D106F47011A06A8142EC
:1029900001D0012054E5002052E500000010024063
:1029A0000000424270B504462546681EB0F1807FA3
:1029B00001D301200FE0681E4FF0E02148610F2194
:1029C0004FF0FF3002F03EFB00204FF0E021886125
:1029D00007200861002070BD7047704710B503469E
:1029E000002200BF93F83C00012801D1022010BD55
:1029F000012083F83C0000BF22F0FF00CC6840EAD1
:102A0000040222F440708C6840EA040222F48060E0
:102A10004C6840EA040222F400600C6840EA0402B8
:102A200022F480500C6940EA040222F400504C6900
:102A300040EA040222F48040CC6940EA04021868AB
:102A4000426400BF002083F83C0000BF00BFCEE717
:102A500030B502460B4600BF92F83C00012801D178
:102A6000022030BD012082F83C0000BF022082F825
:102A70003D00106844681068816824F0700418688C
:102A8000044310684460124D1068A8420FD01068CB
:102A9000B0F1804F0BD00F4D1068A84207D00E4DFB
:102AA0001068A84203D00D4D1068A84205D121F04E
:102AB00080015868014310688160012082F83D0060
:102AC00000BF002082F83C0000BF00BFC9E7000043
:102AD000002C01400004004000080040000C0040B1
:102AE00010B504460CB9012010BD94F83D0028B97A
:102AF000002084F83C00204600F026F8022084F8EC
:102B00003D00211D206801F03DFF012084F84600B2
:102B100000BF84F83E0001213F20015540200155AF
:102B20004120015500BF00BF012084F8420043202E
:102B30000155442001554520015500BF012084F86E
:102B40003D000020D0E7000038B504462849206841
:102B5000884216D100BF2748806940F400602549AB
:102B600088610846806900F40060009000BF00BFE3
:102B7000002211461920FFF7ADFA1920FFF79AFA43
:102B800034E02068B0F1804F16D100BF1948C06909
:102B900040F001001749C8610846C06900F0010013
:102BA000009000BF00BF002201211C20FFF792FA15
:102BB0001C20FFF77FFA19E00F492068884215D1E1
:102BC00000BF0C48C06940F002000A49C8610846CD
:102BD000C06900F00200009000BF00BF0022114653
:102BE0001D20FFF777FA1D20FFF764FA38BD0000BB
:102BF000002C01400010024000040040014691F802
:102C00003D00012801D001207047022081F83D00DD
:102C10000868C06840F001000B68D860144B086871
:102C200098420FD00868B0F1804F0BD0114B086864
:102C3000984207D0104B0868984203D00F4B0868A1
:102C400098420CD10868806800F00702062A0CD070
:102C50000868006840F001000B68186005E008682B
:102C6000006840F001000B6818600020CCE700000D
:102C7000002C01400004004000080040000C00400F
:102C80002DE9F04104460D46002700BF94F83C00B2
:102C9000012802D10220BDE8F081012084F83C0027
:102CA00000BF022084F83D002068866826F0770681
:102CB00026F47F46206886602868502833D00CDCD4
:102CC000202850D004DC00284BD0102851D149E0F6
:102CD000302849D040284CD139E060282DD07028C8
:102CE00007D0B0F5805F03D0B0F5005F41D10DE0B3
:102CF00041E0D5E902136A68206801F096FE206879
:102D0000866846F077062068866034E0D5E90213CD
:102D10006A68206801F089FE2068806840F480407D
:102D20002168886027E0EA686968206801F04EFF42
:102D30005021206801F084FE1DE0EA68696820687F
:102D400001F057FF6021206801F07AFE13E0EA6885
:102D50006968206801F03AFF4021206801F070FEA8
:102D600009E000BF00BF00BF2968206801F068FECD
:102D700001E0012700BF00BF012084F83D0000BF33
:102D8000002084F83C0000BF384684E7704710B547
:102D9000044620680069C0F34000D8B12068C068CC
:102DA000C0F34000B0B16FF002002168086101205B
:102DB00020772068806900F0030018B12046FFF7F3
:102DC000E5FF05E0204600F0D9F8204600F08DF937
:102DD0000020207720680069C0F38000D8B1206807
:102DE000C068C0F38000B0B16FF0040021680861D2
:102DF000022020772068806900F4407018B12046D6
:102E0000FFF7C4FF05E0204600F0B8F8204600F0C8
:102E10006CF90020207720680069C0F3C000D8B1A9
:102E20002068C068C0F3C000B0B16FF0080021682E
:102E30000861042020772068C06900F0030018B101
:102E40002046FFF7A3FF05E0204600F097F8204654
:102E500000F04BF90020207720680069C0F30010D3
:102E6000D8B12068C068C0F30010B0B16FF0100096
:102E700021680861082020772068C06900F440704C
:102E800018B12046FFF782FF05E0204600F076F8F3
:102E9000204600F02AF9002020772068006900F021
:102EA000010058B12068C06800F0010030B16FF037
:102EB000010021680861204600F0D6F92068006909
:102EC000C0F3C01058B12068C068C0F3C01030B162
:102ED0006FF08000216808612046FFF77DFD2068C3
:102EE0000069C0F3801058B12068C068C0F380103A
:102EF00030B16FF0400021680861204600F0FCF915
:102F000020680069C0F3401058B12068C068C0F361
:102F1000401030B16FF02000216808612046FFF7B3
:102F20005CFD10BD10B586B00446002002900390F1
:102F3000049005900E492068884216D100BF0D48C4
:102F4000806940F004000B4988610846806900F000
:102F50000400019000BF00BF0815029002200390FA
:102F6000059002A90448FEF799FE06B010BD0000C6
:102F7000002C0140001002400008014070472DE97C
:102F8000F04104460D461646002700BF94F83C0069
:102F9000012802D10220BDE8F081012084F83C0024
:102FA00000BF36B1042E1BD0082E31D00C2E5ED1BE
:102FB00045E02946206801F04DFD2068806940F019
:102FC0000800216888612068806920F00400216879
:102FD000886120688069296908432168886148E020
:102FE0002946206801F066FD2068806940F4006091
:102FF000216888612068806920F480602168886188
:1030000020688069296940EA01202168886130E0F0
:103010002946206801F082FD2068C06940F0080060
:103020002168C8612068C06920F004002168C86177
:103030002068C069296908432168C86119E02946E8
:10304000206801F09FFD2068C06940F4006021689D
:10305000C8612068C06920F480602168C861206868
:10306000C069296940EA01202168C86101E001279F
:1030700000BF00BF00BF002084F83C0000BF3846FE
:1030800089E710B504460CB9012010BD94F83D0045
:1030900028B9002084F83C00204600F025F80220E2
:1030A00084F83D00211D206801F06CFC012084F8AB
:1030B000460000BF84F83E0001213F20015540201A
:1030C00001554120015500BF00BF012084F8420096
:1030D00043200155442001554520015500BF0120E2
:1030E00084F83D000020D0E77047704770B5044673
:1030F0000D4615B994F83E000BE0042D02D13F2097
:10310000005D06E0082D02D14020005D01E0412075
:10311000005D012801D0012070BD1DB9022084F896
:103120003E000EE0042D03D102213F20015508E0AE
:10313000082D03D102214020015502E00221412047
:10314000015501222946206801F05EFC1B492068D8
:10315000884201D1012000E0002028B12068406CA5
:1031600040F40040216848641449206888420FD028
:103170002068B0F1804F0BD011492068884207D0F9
:1031800010492068884203D00F49206888420CD13A
:103190002068806800F00706062E0CD020680068C2
:1031A00040F001002168086005E02068006840F0F8
:1031B0000100216808600020AEE70000002C0140FB
:1031C0000004004000080040000C004030B50446F8
:1031D0000D4600222946206801F016FC214920688E
:1031E000884201D1012000E0002090B100BF20689A
:1031F000006A41F21111084050B92068006A891034
:10320000084028B92068406C20F4004021684864D8
:1032100000BF00BF2068006A41F21111084050B998
:103220002068006A8910084028B92068006820F0EA
:1032300001002168086000BF1DB9012084F83E002C
:103240000EE0042D03D101213F20015508E0082D97
:1032500003D101214020015502E001214120015507
:10326000002030BD002C014010B504461C492068E8
:1032700088421ED100F0B6FF1A48006800EB4001FA
:10328000C1EBC0101849096801EBC000174908607C
:1032900015480068401C1449086008460068B0F5ED
:1032A0007A7F06D1002008600E480068401C0D4956
:1032B00008602068B0F1804F10D10D480068401CB4
:1032C0000B4908600B4802F0F4FD094800686428C7
:1032D00004D9FDF70DF900200549086010BD000074
:1032E0000004004018000020140000201C000020F2
:1032F000200000203C0F00207047704770B5044646
:10330000002520684069C0F3C01594F841002128C9
:1033100017D1B5B100BF00BF2168143151E8001FBB
:1033200021F080002168143141E80002002AF3D125
:1033300000BFA06B10B1A06BFEF721FA204601F090
:1033400036FD20684069C0F3801594F842002228B9
:1033500017D1B5B100BF00BF2168143151E8001F7B
:1033600021F040002168143141E80002002AF3D125
:1033700000BFE06B10B1E06BFEF701FA204601F0F0
:10338000E0FC002070BD704710B504460CB9012068
:1033900010BDA06900B100E000BF94F8410028B959
:1033A000002084F84000204600F02AF8242084F809
:1033B00041002068C06820F400502168C8602046A1
:1033C00001F008FD2068006920F490402168086140
:1033D0002068406920F02A00216848612068C068A0
:1033E00040F400502168C86000206064202084F808
:1033F000410084F842000020606300BFC8E700007D
:1034000010B586B004460020029003900490059009
:1034100035492068884264D100BF3448C06940F40F
:1034200000303249C8610846C06900F4003001909C
:1034300000BF00BF00BF0846806940F004008861FB
:103440000846806900F00400019000BF00BF04201E
:103450000290022003900320059002A92448FEF761
:103460001DFC0820029000200390049002A920482F
:10347000FEF714FC1F482049086000204860002126
:103480001D4881608021C16000210161416181612D
:103490004FF40051C161FEF76DFB08B1FDF7D9F89B
:1034A00000BF1548E063446200BF1248143013495E
:1034B0000860102048600021104881608021C160B0
:1034C00000210161416181614FF40051C161FEF74A
:1034D00051FB08B1FDF7BDF800BF0848A063446286
:1034E00000BF06B010BD00000044004000100240C4
:1034F000000801406C0002405402002098020020A5
:1035000070B504460D46164694F8420020280BD1AB
:1035100005B10EB9012070BD002020633246294656
:10352000204601F0D5FCF6E70220F4E7704770472B
:1035300040F68C2423E01248007B1A2804D10A2389
:103540001846214602F068FB0D48007B1B2804D179
:1035500009231846214602F05FFB0948007B1C281E
:1035600004D108231846214602F056FB0448007B8C
:103570001D2804D107231846214602F04DFBDAE747
:10358000DC0200202DE9F04107460D462D226C4952
:103590006C48FCF7C2FE0024CDE06A482D38005D7F
:1035A000A5287DD167492D390819052101F016FD9F
:1035B0000128F6D163492D39A01D0E5C601D085C01
:1035C00040EA0626A01C0D5C601C085C40EA05254C
:1035D00040F2012086423CD1081905F1090101F0B1
:1035E000DDFCB0B357492D39E01D01445648097838
:1035F000817054492D3904F108000144524809787A
:10360000C17050492D3904F1090001444E48098820
:1036100081804C492D3904F10B0001444A48098846
:10362000C18048492D3904F10D00014446480988FC
:10363000018144492D3904F10F00014442480988B1
:10364000418140492D3904F1110001443E48098867
:10365000C18140F20220864246D13A492D390819EB
:1036600005F1090101F09AFC00283DD035492D39BA
:10367000E01D014434480988018232492D3904F1A2
:10368000090001443048098841822E492D3904F14E
:103690000B0001442C48096841612A492D3900E09A
:1036A00041E004F10F0001442748098801832549BE
:1036B0002D3904F11500014423480988418323482A
:1036C0000078401C2149087008460078052801D17F
:1036D000002008701C4948691D49096805F012FA64
:1036E000194840691A49086040F2072086421AD1F9
:1036F00014492D39081905F1090101F04FFC90B169
:1037000010492D3904F1090001440F480978017767
:103710000C492D3904F10A0001440B480968416243
:103720000120094948772D220649A1F12D00FCF717
:10373000F4FD601C04B22D2CFFF62FAFBDE8F08124
:10374000B00100208D0F0020BC0F0020840000205D
:1037500060000020074A084B1A60C0F88C11002254
:10376000064B5A6008221A6100229A60DA601A75C4
:1037700070470000996600082C00002070080020A7
:103780007CB506460C4615460DB9012000E0002028
:10379000012D01D1012100E00021084358B3B4F804
:1037A0005400000A8DF8000094F854008DF80100D0
:1037B000B4F88000000A8DF8020094F880008DF8BB
:1037C0000300B4F8AC00000A8DF8040094F8AC00D3
:1037D0008DF80500B4F8D800000A8DF8060094F8BA
:1037E000D8008DF80700D4F88C016A464FF40071B8
:1037F0003368984700BF0DB9012000E00020022D7A
:1038000001D1012100E00021084358B3B4F80401BC
:10381000000A8DF8000094F804018DF80100B4F856
:103820003001000A8DF8020094F830018DF8030091
:10383000B4F85C01000A8DF8040094F85C018DF87E
:103840000500B4F88801000A8DF8060094F8880194
:103850008DF80700D4F88C016A4640F2FF113368F6
:10386000984700BF7CBD000070B504460D46164663
:103870000649D4F88C01486032462946204600F0BB
:1038800007F808B1012070BD0020FCE72C000020E3
:103890002DE9F04105460F461646FCB2012C01DA2F
:1038A000012000E00020082C01DD012100E00021C2
:1038B000084310B10120BDE8F0817078317840EA0A
:1038C000012000B204EB440101EBC40105EB8101CE
:1038D0004880F078B17840EA012001B204EB44005E
:1038E00000EBC40005EB800081807079317940EAFB
:1038F000012001B204EB440000EBC40005EB8000A2
:10390000C180B17904EB440000EBC40005EB8000FA
:10391000017204EB440101EBC40105EB810149880C
:1039200088B200F04BF804EB440101EBC40105EB55
:103930008101086104EB440101EBC40105EB810145
:10394000498888B200F04CF804EB440101EBC40153
:1039500005EB8101C86004EB440101EBC40105EBF8
:103960008101B1F9060000F05FF8804605F0FEF82D
:1039700004EB440101EBC40105EB8101886104EB18
:10398000440000EBC40005EB8000818804EB440098
:1039900000EBC40005EB8000818204EB440000EBE7
:1039A000C40005EB8000017A04EB440000EBC40086
:1039B00005EB8000C16100207DE7000070B5044682
:1039C000204605F027F90646034904F0D9FF0546CD
:1039D000024905F067F970BD00F8FF450000B443E7
:1039E0002DE9F84F8246504605F014F90B49009036
:1039F00004F0C6FF834604F029FF8046084A094BBD
:103A000004F014FC064600224FF0804304F00EFC44
:103A1000044604F0F3F8BDE8F88F000000F8FF4515
:103A20001F85EB51B81E094070B50446204605F0CD
:103A3000D9F806464FF08D4104F0A2FF0546024931
:103A400005F030F970BD00000000A0412DE9F04103
:103A50000446204604F0FAFE05464FF03332044B8C
:103A600004F0E4FB074604F0C9F8BDE8F08100006B
:103A70003333D33F70B504460D46A38B9AB2217BF6
:103A80002B46A06800F0B6F870BD70B5044620461D
:103A900000F00EF8E06C401CE064B4F9240005F07E
:103AA000A1F80546216904F06BFF606370BD00005A
:103AB0002DE9F0410446217B01EB410202EBC101FB
:103AC000A06800EB810040882084217B01EB41024B
:103AD00002EBC101A06800EB81008188A184217BF9
:103AE00001EB410202EBC101A06800EB8100C1883B
:103AF000E184B4F9260004F032FB07464FF033327C
:103B0000244B04F093FB054604F0FAFA2063B4F961
:103B1000260005F067F806464FF08D4104F030FFAF
:103B200005461D4905F0BEF8A064B4F92010B4F9AB
:103B30002200081A10F5805F02DCE06A401CE06297
:103B4000B4F92010B4F92200081AB0F5805F02DB46
:103B5000E06A401EE062B4F92010E06A01EB4030F8
:103B6000A062B4F9240005F03DF80546216904F08F
:103B700007FF6063206B05F035F80646216905F004
:103B800091F80546616805F01DFA6064218C618436
:103B9000BDE8F0813333D33F0000A04170B5044647
:103BA0000D46287B2073A868A0602869206168689A
:103BB0006060286820602968A068FFF7CBFD70BDB1
:103BC0002DE9F04104460D461646A583B4F91C00C4
:103BD000FFF72AFFA061A069FFF738FF07462169B8
:103BE00005F060F8606131462046FFF743FFBDE80D
:103BF000F08100002DE9F04104460D4616461F46AF
:103C00000C49D4F88C01486031B205EB450000EB5B
:103C1000C50004EB8000018557B9052095FBF0F045
:103C2000401C00F0FF08424621460248FFF7A8FD6D
:103C3000BDE8F0812C00002010B50E480E49086048
:103C40000420486000210C488160C1604FF480214D
:103C50000161C90041610021017601214176002105
:103C60008176C17601774177FDF713FB08B1FCF748
:103C7000F0FC10BD006400408800002010B50E4824
:103C80000E4908600420486000210C488160C16032
:103C90004FF40031016149014161002101760121A8
:103CA000417681760021C17601774177FDF7F1FAFF
:103CB00008B1FCF7CEFC10BD00680040B000002049
:103CC00008B500BF0E48406940F001000C4948614A
:103CD0000846406900F00100009000BF00BF0022CC
:103CE00011461020FEF7F6F91020FEF7E3F9002246
:103CF00011461120FEF7EEF91120FEF7DBF908BDA1
:103D00000010024000B585B00020019002900390A1
:103D1000049000BF1C48806940F020001A49886167
:103D20000846806900F02000009000BF00BF00BF7F
:103D30000846806940F0040088610846806900F008
:103D40000400009000BF00BF00BF0846806940F03B
:103D5000080088610846806900F00800009000BFF4
:103D600000BF002203210948FEF728F90320019033
:103D70000120029002200390049001A90348FDF75E
:103D80008DFF05B000BD000000100240000C014096
:103D900000B595B0002011901290139014900F90E0
:103DA00010901C2108A8FCF72FFB20216846FCF787
:103DB0002BFB2B482B490860242048600021294810
:103DC000816040F2E731C1600021016141618021E1
:103DD0008161FEF785FE08B1FCF73BFC4FF4805093
:103DE000119011A91F48FEF74BFF08B1FCF731FCF9
:103DF0001C48FFF746F908B1FCF72BFC00200F9098
:103E000010900FA91748FEF723FE08B1FCF721FC1C
:103E100060200890002009900A900B900C900D9063
:103E20000E90082208A90F48FFF7A9F808B1FCF77F
:103E300010FC0020009001900290039004904FF439
:103E4000005005900020079069460648FEF7C6FD21
:103E500008B1FCF7FEFB0348FFF764F815B000BD9E
:103E6000002C0140D800002000B587B0002003904E
:103E7000049005900690019002904FF08040144904
:103E800008604720486000211148816040F2E73116
:103E9000C160002101618161FEF722FE08B1FCF7DB
:103EA000D8FB4FF48050039003A90948FEF7E8FEC1
:103EB00008B1FCF7CEFB00200190029001A9044854
:103EC000FEF7C6FD08B1FCF7C4FB07B000BD00005B
:103ED0002001002000B587B00020039004900590D9
:103EE00006900190029014481449086048204860E8
:103EF0000021124881604FF47A71C1600021016194
:103F00008161FEF7EDFD08B1FCF7A3FB4FF4805093
:103F1000039003A90948FEF7B3FE08B1FCF799FB2B
:103F200000200190029001A90448FEF791FD08B11C
:103F3000FCF78FFB07B000BD0004004068010020C3
:103F400010B51148114908604FF4E1304860002174
:103F50000E488160C16001610C21416100218161D5
:103F6000C161FFF711FA08B1FCF773FB074800685D
:103F7000C06840F0100005490968C8605A22044929
:103F80000248FFF7BDFA10BD004400400C020020BB
:103F9000B00100202DE9FC4782460021504604F084
:103FA0004DFF01D250460DE08AF000464FF05251CD
:103FB000304604F043FE01D8012000E00020054611
:103FC00004F010FE0446002104F09CFD03D04FF0E5
:103FD0007E50BDE8FC87504604F038FC04460D4690
:103FE000504604F033FC064603F08AF88046224629
:103FF0002B4603F0F1FECDE9000103F0FFFDE8E7F9
:1040000000BFFEE72DE9F04706460F469046994669
:1040100042464B463046394601F068FC04460D46A0
:10402000002213464046494604F02EF812D10022E1
:1040300013463046394604F0F7F902D2144C154DB8
:1040400008E0002213463046394604F0B3F801D2A6
:104050000F4C114D002213463046394604F014F837
:1040600012D1002213464046494604F0DDF902D23F
:104070000024254608E0002213464046494604F045
:1040800099F801D2024C054D20462946BDE8F0873B
:104090001F85EB51B81EF93FB81EF9BFB81E094085
:1040A00000BFFEE72DE9F04104460E46608CE8B102
:1040B000A06AA6EB0008B4F9220000FB08F794F808
:1040C00026000741A6623146204600F021F8C519B6
:1040D000B4F91400A84202DAB4F914500BE0B4F9B0
:1040E0001600A84207DDB4F9165004E03146204618
:1040F00000F00EF8054628B2BDE8F0810188818005
:104100004188C180018C41840021816081627047B7
:104110002DE9F04302460D464FF00008B2F9146055
:10412000B2F91670B2F9040000FB05FCD08810B992
:104130000020906022E0B2F9060000FB05F49068D0
:104140000319002B07DA906800280ADD002C08DD2F
:104150006FF0004305E09068002802DA002C00DAD6
:10416000134BD068984202DAD068906006E010697C
:10417000984202DD1069906000E0936092F81E9012
:10418000906840FA09F092F81C904CFA09F900EB9B
:104190000901B14203DDA6EB0108314604E0B94252
:1041A00002DAA7EB0108394608B2BDE8F083000047
:1041B000010000807047000008B508490968C90877
:1041C0004FF47A72B1FBF2F14143009100BF00BF9E
:1041D00000994A1E00920029F9D108BD1000002064
:1041E0007047000010B5074800F0D8F8054800F007
:1041F0005BFB044800F0B2F80249034803F0E4FC1A
:1042000010BD0000DC020020EC0E002010B501F013
:10421000DDFC0C4800F0CCF803F006FB2A210A482C
:1042200003F0B4FC2B210848283003F0AFFC2C210C
:104230000548503003F0AAFC2D210348783003F0E4
:10424000A5FC10BDDC0200209C0E00202DE9F047EB
:1042500007460021384604F0F1FC02D80020BDE8F2
:10426000F0874FF08041384604F08AFB0546164936
:10427000384604F017FD044600BF2946284604F0DE
:1042800011FD8046394604F09DFE064629464FF052
:10429000804004F007FD81464946304604F070FB3B
:1042A0008046294604F0FBFD05462146304604F0D1
:1042B000C5FDE2D384F000483146404604F0BEFD1F
:1042C000DBD32846CBE700006F12833A0246002179
:1042D00007E0064850F83100904201D100207047B5
:1042E000491C0429F5DB0320F9E70000E40C002059
:1042F00010B5C0210248FCF787F8002010BD00006F
:10430000BC0D0020024600210AE0074800EBC10076
:104310000079904203D1044850F831007047491C9D
:104320000429F2DB0020F9E7E40C0020024600211A
:104330000EE0094850F8310048B9074840F83120EC
:10434000107B054B03EBC103187100207047491C1B
:104350000429EEDB0120F9E7E40C002070B50446E7
:104360002046FFF7B3FFB8B9D4F8C40004F0FEFB51
:1043700005B20022294604F1B000FFF721FCD4F871
:104380002C0204F0F3FB05B20022294604F5067066
:10439000FFF716FC002070BD0320FCE710B50446B3
:1043A000204600F040FA204600F0F8F8002010BD4A
:1043B00010B592B00446322033490022334BCDE988
:1043C0000032CDE902101346314A32493248FCF737
:1043D0006BF920213148FCF717F8204600F0C2F9AC
:1043E0004FF0824011902E480F9001208DF8400030
:1043F00000200E902B480D900DA904F1B000FFF79E
:10440000CDFB29480C9026480A9002208DF82C00FC
:10441000002009902348089008A904F50670FFF7CA
:10442000BDFB40F2AF70208004F5A87001F01EFBC8
:1044300001208DF8140000208DF815008DF818006B
:104440000C20049004A904F5A87001F059FB4FF466
:104450008061C4F80411042184F8081194F808015B
:10446000D4F804114143C4F80C111C20207301211D
:104470006173A1732046FFF759FF10B1012012B0FC
:1044800010BD0020FBE70000000048430000204171
:1044900000401C4600401CC6280B0020E40C0020F5
:1044A00050050020880000200000604170B50446DF
:1044B000D4F87011C4F840111E480168C4F84811BE
:1044C000D4F84811D4F84C010D1AD4F87011D4F86E
:1044D00074010E1AB6FBF5F1C4F83C11D4F8E400EF
:1044E00004F044FBC4F83C0104F5A87001F014FB8F
:1044F000D4F84811C4F84C11D4F8E40004F036FBA9
:10450000C4F89C00D4F8F40004F030FBC4F8A40014
:10451000D4F85012C4F80812D4F84C0204F026FB68
:10452000C4F80402D4F85C0204F020FBC4F80C02C6
:10453000002070BD1C0000200146D1F84021D1F8B8
:104540000C01B2FBF0F300FB1322C1F8182191F823
:10455000100130B9D1F80C21D1F81801121AC1F8A4
:104560001821D1F81801C0EB4032D1F80C01B2FB90
:10457000F0F2C1F81821D1F83C21C1F81421D1F88A
:104580000822C1F8E021D1F80422C1F8DC21D1F8D9
:104590000C22C1F8E4210020704700002DE9F05FF3
:1045A00004462046FFF792FE002879D1B4F9800135
:1045B00094F90D104843B4F98211451A294604F5BF
:1045C000D870FFF76FFDC4F8F801207C002869D18E
:1045D00094F90D10481E04F005FB83464FF080410E
:1045E00004F0CEF98146584904F05CFB8046B4F9EA
:1045F0001420B4F91810501A04F0F4FA8246414617
:1046000004F0E0FC074604F0B1FA05462846291EEE
:1046100001DB0A4600E04A4241F6FF739B1A00287C
:1046200001DB024600E04242934206DD281E01DB28
:10463000014600E041420E4607E0281E01DB01462C
:1046400000E0414241F6FF72561A304604F0CAFAC1
:1046500007463E4904F0F2FB03D2607B404241B280
:10466000617394F90D10481E04F0BCFA83464FF0B4
:10467000804104F085F98146334904F013FB8046FC
:10468000B4F91420B4F91810501A04F0ABFA8246A9
:10469000414604F097FC074604F068FA054606E038
:1046A00050E0FFE7B4F91410B4F918000D1AE07BDC
:1046B00088B941F6FF70401BA84203DAA5F5F8550A
:1046C000FF3D08E041F6FF7028444042A84202DD69
:1046D00041F6FF7005441E480088401B00B21D498A
:1046E0000880294604F11C00FFF7DCFCE082B4F9E5
:1046F00016001949FBF7B0FF01B2E182B4F91610B8
:10470000B4F91A000D1A294604F14800FFF7CAFC53
:10471000C4F8900094F8100118B9D4F89010C4F8B7
:1047200090100E490E4801F04BFD0C49C86901F08C
:104730000FFCD4F8900004F055FAC4F8C40000202F
:10474000BDE8F09F0320FBE700F07F4500F0FF4449
:104750004600002048000020D00800207C0E0020E9
:104760009C0E002010B50446582104F11C00FBF7F4
:104770004BFE582104F5C270FBF746FE0721A183CA
:10478000062121870021A187A4F842104FF4FA6185
:1047900021864FF630016186C821A4F84810012116
:1047A000A4F864103221A4F84A100221A4F866107B
:1047B00041F65831A4F85C104EF2A841A4F85E10FE
:1047C00041F2883161654942A1654FF4AF71A4F8A7
:1047D000B0110221A4F8CC116421A4F8B211022175
:1047E000A4F8CE11A4F8D0110021A4F8D6114FF4EA
:1047F0007A51A4F8C4114CF28011A4F8C6114FF4F8
:104800007A71C4F8BC114942C4F8C01104F11C000B
:10481000FFF774FC04F14800FFF770FC04F5D87052
:10482000FFF76CFC10BD0146088888824888A1F813
:104830008001002070470146B1F8180102B20A83D6
:10484000B1F8140102B24A83B1F8DC0102B24FF4AC
:10485000C170425200207047024611B1012906D1B1
:1048600002E00023D37303E00123D37300E000BF11
:1048700000BF00207047024611B1012906D102E0B5
:104880000023137403E00123137400E000BF00BF92
:1048900000207047024608B2108000207047024690
:1048A00008B250800020704710B504462046FFF73C
:1048B0000DFD50B92046FFF7F9FD2046FFF73CFEFD
:1048C0002046FFF7B8FF002010BD0320FCE710B51D
:1048D000FDF780FB10BD000000B593B0382105A89E
:1048E000FBF792FD14216846FBF78EFD0120059031
:1048F000000407900020089001200A9000200690F4
:1049000002200D90C1030E914FF4E0110F91002091
:10491000109005A8FDF790FD08B1FBF79AFE0F2057
:10492000009002200190002002904FF480600390DC
:104930000020049002216846FDF71EFC08B1FBF739
:1049400088FE01200149086713B000BD0000424203
:104950007047000010B50248FEF719FA10BD0000BC
:10496000D800002010B50248FEF711FA10BD000073
:104970002001002010B50248FEF709FA10BD000022
:104980006801002010B502681B4B98420BD0B0F1B3
:10499000804F08D0194B984205D0194B984202D04D
:1049A000184B984203D122F070024B681A43124B05
:1049B00098420BD0B0F1804F08D0104B984205D0F0
:1049C0000F4B984202D00F4B984203D122F4407211
:1049D000CB681A4322F080034C6943EA0402026068
:1049E0008B68C3620B688362034B984201D10B69E9
:1049F00003630123436110BD002C0140000400400B
:104A000000080040000C004030B501F01F050124F3
:104A100004FA05F3046A9C430462046A01F01F056A
:104A200002FA05F52C43046230BD30B50C468168AE
:104A300021F47F4142EA032525432943816030BDAB
:104A40000A46816821F0700142F007031943816032
:104A50007047000030B5026A056A25F0010505625D
:104A60004368846924F0700424F003040D682C4327
:104A700022F002028D682A430D4DA84206D100BFE4
:104A800022F00802CD682A4322F00402084DA84211
:104A900007D123F4807323F400734D692B438D6990
:104AA0002B43436084614D684563026230BD000062
:104AB000002C014030B5026A056A25F01005056238
:104AC0004368846924F4E04424F440740D6844EAA3
:104AD000052422F020028D6842EA05120E4DA842FC
:104AE00007D100BF22F08002CD6842EA051222F011
:104AF0004002094DA84209D123F4806323F40063E6
:104B00004D6943EA85038D6943EA85034360846107
:104B10004D688563026230BD002C014030B5026AE9
:104B2000056A25F4807505624368C46924F0700441
:104B300024F003040D682C4322F400728D6842EACD
:104B400005220F4DA84207D100BF22F40062CD68B4
:104B500042EA052222F48062094DA84209D123F4D9
:104B6000805323F400534D6943EA05138D6943EAEA
:104B700005134360C4614D68C563026230BD000027
:104B8000002C014030B5036A056A25F480550562A2
:104B90004468C26922F4E04222F440720D6842EA9D
:104BA000052223F400538D6843EA0533064DA842DD
:104BB00004D124F480444D6944EA85144460C26100
:104BC0004D680564036230BD002C014030B50B46D2
:104BD0001446026A056A25F001050562816921F023
:104BE000F00141EA041122F00A021A4381610262D3
:104BF00030BD30B50B461446026A056A25F0100533
:104C00000562816921F4704141EA043122F0A00279
:104C100042EA03128161026230BD70B5064600258A
:104C2000746A20684069C0F3C01594F841002128D7
:104C300005D125B10020E084204600F0B8F82068B6
:104C40004069C0F3801594F84200222805D125B1AF
:104C50000020E085204600F074F8606C40F0100001
:104C600060642046FEF78FFB70BD70B505466C6A28
:104C70002868006800F02000002842D1E08500BFCD
:104C800000BF21680C3151E8001F21F480702168B9
:104C90000C3141E80002002AF3D100BF00BF00BF81
:104CA0002168143151E8001F21F0010021681431FE
:104CB00041E80002002AF3D100BF00BF00BF216815
:104CC000143151E8001F21F040002168143141E8FF
:104CD0000002002AF3D100BF202084F84200206B9C
:104CE00001280ED100BF00BF21680C3151E8001F20
:104CF00021F0100021680C3141E80002002AF3D1B4
:104D000000BF00206063206B012804D1A18D2046E4
:104D1000FEF7F3FA02E02046FEF708FC70BD70B51E
:104D200005466C6A01206063206B012805D1A08DC7
:104D300041082046FEF7E1FA02E02046FEF7F7FBC5
:104D400070BD00BF00BF02680C3252E8002F22F491
:104D5000907102680C3242E80013002BF3D100BFBF
:104D600000BF00BF0268143252E8002F22F0010198
:104D70000268143242E80013002BF3D100BF016B2C
:104D800001290ED100BF00BF02680C3252E8002F8B
:104D900022F0100102680C3242E80013002BF3D11C
:104DA00000BF202180F8421000210163704700BF3E
:104DB00000BF02680C3252E8002F22F0C0010268E6
:104DC0000C3242E80013002BF3D100BF202180F801
:104DD0004110704770B504462168096921F44051BB
:104DE000E2681143226811612269A1681143626976
:104DF00041EA02052168C96841F20C6291432943E6
:104E00002268D1602168496921F44071A269114387
:104E1000226851612D4A2168914202D1FDF788FA3A
:104E200001E0FDF775FA00EBC00101EB00116268CB
:104E30009200B1FBF2F100EBC00202EB00126368DA
:104E40009B00B2FBF3F26423B2FBF3F202EBC2036A
:104E500003EB0212A1EB8201322202EB0111642268
:104E6000B1FBF2F101F0F00100EBC00202EB001225
:104E700063689B00B2FBF3F26423B2FBF3F201EB35
:104E8000021200EBC00101EB001163689B00B1FB53
:104E9000F3F100EBC00303EB00136668B600B3FB4D
:104EA000F6F36426B3FBF6F303EBC30606EB03133A
:104EB000A1EB8301322303EB01116423B1FBF3F176
:104EC00001F00F0111442268916070BD003801406B
:104ED00077B581B0044615460298A062A5850020EA
:104EE0006064222084F842002848E16B88622848E8
:104EF000E16BC8622748E16B08630020E16B4863FF
:104F000002AE32682368191D2B46E06BFCF778FE71
:104F100000BF002000902068006800902068406872
:104F2000009000BF00BF206970B100BF00BF2168C2
:104F30000C3151E8001F41F4807021680C3141E8C8
:104F40000002002AF3D100BF00BF00BF2168143166
:104F500051E8001F41F001002168143141E80002CE
:104F6000002AF3D100BF00BF00BF2168143151E80F
:104F7000001F41F040002168143141E80002002A7E
:104F8000F3D100BF002004B070BD00006B4C0008DE
:104F90001F4D00081B4C000800BFFEE770B505461A
:104FA0000C4600260DB1022C01D8002070BDA11EB8
:104FB000094802882846FBF7E7FD0646F1B2A01E25
:104FC000285C814206D1601E285CB0EB162F01D10F
:104FD0000120EBE70020E9E75C00002070B5054602
:104FE0000C4600260DB1022C01D8002070BD611EB8
:104FF000FF222846FBF7E2FD0646601E285CB04211
:1050000001D10120F2E70020F0E7490050EAC12079
:1050100018BF04204A0D18BF40F0010040F2FF7293
:10502000B2EB515F08BF40F00200012808BF052025
:105030007047000002480068C0F30220704700007B
:105040000CED00E010B5002804DB0A07130E054A3A
:10505000135406E00A07140E034A00F00F031B1F47
:10506000D45410BD00E400E018ED00E02DE9F74F46
:10507000144694B00021C4E902111599079121F05A
:105080000045C9498D4206DC1599C4E9000117B0F5
:105090000020BDE8F08FC549DFF814A3A9423CDD2C
:1050A0000799C44E0029C44FC44A1599534619DDC7
:1050B00003F0E2FA554506D0C14AC24B03F0DCFAD0
:1050C000C4E900010AE04FF0D352BE4B03F0D4FA1A
:1050D00032463B4603F0D0FAC4E9000117B0012084
:1050E000BDE8F08F02F0BCFD554506D0B44AB54B83
:1050F00002F0B6FDC4E900010AE04FF0D352B14B13
:1051000002F0AEFD32463B4602F0AAFDC4E90001C2
:1051100017B04FF0FF30BDE8F08FAB49A9421599A9
:1051200078DB21F0004183468846A84AA84B03F06B
:105130007DF80022A74B02F093FD02F0E1FF0990F9
:1051400003F00DF806460F469C4A534603F06EF8EE
:1051500043465A4603F09EF980468A46984A994B40
:105160003046394603F062F82A0D01250B9242467B
:10517000534603F08FF9032DC4E9000139D00B9891
:10518000C1F30A51401A05EB45111139814230DA59
:105190009148C346784400EB0510CDF80CA00C9064
:1051A000D0E900233046394603F040F802460B466A
:1051B000049106905846039903F05EFA80468A46A9
:1051C00002460B465846039903F056FA049B069A8A
:1051D00003F052FA83460C9803913946D0E9022332
:1051E000304603F023F85A46039B03F045FA6D1C42
:1051F000BDE707980028A2BF099817B0BDE8F08F57
:10520000616881F000416160099817B04042BDE8D3
:10521000F08FFFE784461598C1F31301C0F30A50DD
:10522000A0F2F5304FEA601800F01F06C6F120002A
:10523000139000200690079041F4801E05206D46D3
:1052400076B1664A08EB00017A4452F8213002EB4D
:105250008101B3404A68139922FA01F1194305E02C
:105260005F4908EB0002794451F82210A1FB0E2798
:10527000A1FB0C131A449A4234BF0123002303EB11
:10528000070A05EB8003D3E901B70F448F4234BF0F
:105290000121002193448B4411B1934502D903E0CD
:1052A000934501D2012100E00021C3E901B7514437
:1052B00045F82010011EA0F10100C1DC0298059FF5
:1052C00000F10050800F12900298DDE90356800033
:1052D00002F045FF834628460D9102F057FF6FF01C
:1052E0001D0203F016FFCDE90E01304602F04EFF1D
:1052F0006FF03D0203F00DFF80468A46384602F00B
:1053000045FF6FF05D0203F004FF07464246534637
:10531000119102F0A5FCDDE90E2302F0A1FC5A4632
:105320000D9B02F09DFC00250E465A4628460D9B1B
:1053300003F0A2F9DDE90E2303F09EF9424653463D
:1053400003F09AF93A46119B03F0A4F8DFF898A00D
:10535000244A534602F06AFF07468846234A244BF4
:105360003146284602F062FF3A46434602F078FC96
:10537000074688464FF0A84253463146284602F079
:1053800055FF3A46434602F06BFC159A12F0004F67
:1053900004D0129A81F0004152421292C4E90001F5
:1053A000129817B0BDE8F08FFB21E93F7CD902408D
:1053B000FB21F93F7370032E8A19A33B0000405470
:1053C0003163621A61B4D03DFB21394183C8C96D94
:1053D000305FE43F0000E03F9844000014440000C8
:1053E000F6430000182D4454FB21F93D3326A61145
:1053F000460B113C2DE9FF4D21F0004807460C46B5
:10540000B8F1795F08DA02F07BFE002801BF0020C6
:10541000324904B0BDE8F08D3A462346104619469D
:1054200002F004FF054602462D480E460B460621B3
:10543000784400F05DF82A46334602F0F7FEDDE9D5
:10544000022382468B463846214602F0EFFE044690
:105450000F4652465B462846314602F0E7FE22469A
:105460003B4603F009F907468A464FF0FF322846CB
:10547000314603F04EFE1B4A90450ADA3A4653463F
:1054800003F0FAF804B00022BDE8F04D134B03F02E
:1054900001B8154A4245A8BFA8F500154FF0000411
:1054A000B8BF124D22462B4603F0E6F80646884662
:1054B00022462B460020094903F0DEF804460D463B
:1054C0003A4653463046414603F0D6F804B02246E9
:1054D0002B46BDE8F04D02F0DDBF00000000F03FBC
:1054E000C44100003333D33F0000E93F0000D23F06
:1054F0002DE9F0414F1E00EBC7010446D1E9000140
:1055000015461E4637F006020DD02A46334602F0F5
:105510008DFE7F1E04EBC703D3E9002302F0A0FB3E
:1055200037F00602F1D1022F25D0042F13D0062F19
:1055300018BFBDE8F0812A46334602F077FED4E971
:105540000A2302F08DFB2A46334602F06FFED4E9AF
:10555000082302F085FB2A46334602F067FED4E9B1
:10556000062302F07DFB2A46334602F05FFED4E9B3
:10557000042302F075FB2A46334602F057FED4E9B5
:10558000022302F06DFB2A46334602F04FFED4E9B7
:105590000023BDE8F04102F063BB00002DE9FF4DA0
:1055A000054621F0004084B00C46B0F1795F0BDA7B
:1055B0002846FFF72AFD042808BF00F07FF8284698
:1055C00008B02146BDE8F08D2A460B46104602F091
:1055D0002DFE06460F462A46234602F027FE804649
:1055E00026488A4632463B4605217844FFF780FF2D
:1055F00083461098029160B3214A224B404651469F
:1056000002F014FECDE900015A4640465146029B85
:1056100002F00CFE82468846DDE906014FF0FF32BB
:1056200003F077FD5246434603F026F832463B46E8
:1056300002F0FCFDDDE9062303F01EF8DDE900239E
:1056400003F01AF808B02A462346BDE8F04D02F0F0
:1056500021BF0B465A463046394602F0E7FD084A5C
:10566000084B02F0FDFA4246534602F0DFFD08B057
:105670002A462346BDE8F04D02F0F2BA0A41000086
:10568000495555555555C5BF002213461046014989
:1056900002F0A2BB0000F03F012203F03ABD02F08D
:1056A000DFBA002213461046114602F095BB40F2C5
:1056B000013200204FF0E04103F02BBD024A0020F0
:1056C000110703F026BD000001FDFFFF2DE9F84F93
:1056D00004460D4621F0004000917349814211DCDF
:1056E0007249884201DC06D12CB120462946BDE82A
:1056F000F84FFFF7D1BF6E48002DCCBF6D496E4902
:10570000BDE8F88F6D49814211DD6D498142D8BFF6
:105710004FF0FF366DDD20462946FFF776FC042862
:1057200008BFFFF7CBFF20462946BDE8F88F654943
:10573000654F25F00045814233DD6449814219DD22
:10574000002632464FF080432046294602F088FA70
:1057500080468A4601222046294603F0DAFC0022D0
:105760003B4602F089FF4246534602F035FB0446B1
:105770000D463EE001260022BA463B462046294619
:1057800002F06EFA80460F46002253462046294614
:1057900002F072FF42463B4602F01EFB04460D46F5
:1057A00027E04B4981421BDDDFF828A102260022B9
:1057B00053462046294602F039FD00223B4602F0BE
:1057C0004FFA80460F46002253462046294602F0F3
:1057D00053FF42463B4602F0FFFA04460D4608E0FE
:1057E000032622462B4600203B4902F0F5FA0446E8
:1057F0000D4622462B461046194602F017FD8B46F1
:10580000824602460B4602F011FD07460246334827
:1058100088460B4606217844FFF76AFE52465B46EF
:1058200002F004FD82462E488B463A464346052147
:105830007844FFF75DFE3A46434602F0F7FC024625
:105840000B46002E504659460CDA02F009FA224661
:105850002B4602F0EBFC01B022462B46BDE8F04F90
:1058600002F018BE02F0FCF922462B4602F0DEFCE4
:105870001C4A7A4402EBC603D3E9002302F0FCFE83
:1058800022462B4602F0F8FE174A7A4402EBC60382
:10589000D3E9002302F0FEFD009A002AB8BF81F090
:1058A0000041BDE8F88F0000000010440000F07FC8
:1058B000182D4454FB21F93FFB21F9BF0000DC3FC8
:1058C0000000203E0000F33F0000F03F0000E63FF4
:1058D000008003400000F83F0000F0BFAE3D000034
:1058E0006C3D00000A3D0000D23C00002DE9F04D67
:1058F0009446CCF1000423F000464CEA0404524FD5
:1059000046EAD4749A46884621F00042BC4206D842
:10591000454240EA050442EAD474BC4204D9BDE8D9
:10592000F04D6246FFF7BBBEAAF14055A5F17F6579
:1059300055EA0C040BD0022404EAAA74434DDFF8A4
:1059400010E144EAD87452EA000B04D00CE0BDE840
:10595000F04DFFF7BBBE002C14BF012CBDE8F08D4D
:10596000022C30D0032C32D056EA0C0B0AD0BE42A7
:1059700020D1BA4209D126F0804622F08042334637
:10598000114617E000291ADB25E0DFF8C8B0FB4418
:10599000002C04BFDBE90001BDE8F08D012C02BF43
:1059A000DBE9000181F00041BDE8F08D022C0AD056
:1059B000032C0CD0BA4212D1B8F1000F0BDA2348F5
:1059C0002549BDE8F08D28462449BDE8F08D2846DC
:1059D0007146BDE8F08D1D482149BDE8F08D921B50
:1059E00012153C2AC4BF19481D490EDCBAF1000F3C
:1059F000BEBF12F13C0F0020014606DB624602F0FA
:105A0000EBF921F00041FFF761FE002C08BFBDE873
:105A1000F08D012C04BF81F00041BDE8F08D114AEA
:105A2000114B022C07D002F027FE2A46BDE8F04DAC
:105A30000A4B02F021BE02F01FFE2A46BDE8F04DDF
:105A4000064B02F027BD00000000F07F182D4454E3
:105A5000FB2109C0963C0000FB21F9BFFB21094056
:105A6000FB21F93F075C143326A6A13C0749084AED
:105A700011600849C1600021074A51600821116185
:105A800000219160D160117570470000BD6600086B
:105A90003800002088000020880800207CB50546DA
:105AA0000C46D4E90401CDE90001228891B2E068F6
:105AB0006A462B6898477CBD70B504460D46A06ABF
:105AC000401CA0622946204600F001F870BD10B5C8
:105AD0000246086890614868D061107EC01EC3B25B
